:020000040000FA
:2B000000FFFF62FF3100FFFFFFFFFFFFFFFFFFFFFFFFFFFFFFFFFFFFFFFFFFFFFFFFFFFFFFFFFFFFFFFFFFFFFFFFFF6A
:2B002B00000CC0000CC0000CC0000CC0004CC0800CC0000000000080011880011880011890011880011880091840F63E
:2B005600001220011220011220011220013A200117200100000000400224400224400224E0022440022440072480D7C0
:2B0081000000000000000000000000000000000000000000000000000000000000000000000000000000000000C0E3B1
:2B00AC000000000000000000000000000000000000000000000000000000000000000000000000000000000000C0E386
:2B00D7000000000000000000000000000020000001000000000000000000000000000000200000000000000400C0D623
:2B0102000000000000000000000000008000004000000000000000000000000000000000801000000000040000C0FBC3
:2B012D000000000000000000000000020000000000000000000000000000000000000000044000000000000000C0C3DE
:2B0158000000000000000000000000000000000000000000000000000000000000000000000000000000000000C0E3D9
:2B01830000000000000000000000000000000000000000000000000000000000000000000CC000000000000000C0E3E2
:2B01AE000000000000000000000000000000000000000000000000000000000000000000044000000000000000C0E33F
:2B01D900000000000000000000000080000000000000000000000000000000000000000070041300000000000000E60E
:2B02040000000000000000000000000602000000000000000000000000000000000000003CC04300000000000080C147
:2B022F00000000000000000000000018000000000000000000000000000000000000000030000300000000000040FA1F
:2B025A000000000000000000000000980200000000000000000000000000000000000000300003000000000000C0F8F4
:2B0285000000002000000000000000020000000000000000000000000000000000000000044000000000000000C0E345
:2B02B0000000000000000000000000000000000000000000000000000000000000000000000000000000000000C0E380
:2B02DB0000000000000000000000000002000000000000000000000000000000000000000CC000000000000000C0E189
:2B030600080000000000000000000040000000000000000000000000000000000000000004400000000000000090FAB6
:2B033100000000000801000000000020000000000000000000000000000000000000000070000B00000000000080D1AC
:2B035C0000000060000000000000000608000000000000000000000000000000000000003CC443000000000000C0EB1A
:2B0387000400008001000000000000000000000000000000000000000000000000000000300003000000000000C8F6D5
:2B03B2000000008085000000000000580400000000000000000000000000000000000000300003000000000000C0EFDD
:2B03DD0000000020240220000000003A020000000000000000000000000000000000000004400000000000000000D837
:2B0408000000000000000000000000100000000000000000000000000000000000000000000000000000000000C0F207
:2B04330000000000200002200000001802000000000000000000000000000000000000000CC00000000000000040FA3C
:2B045E00080000000200000200000058000000000000000000000000000000000000000004400000000000000010E3D8
:2B0489000000000008010102010000580200000000000000000000000000000000000000B0000300000000000000DB53
:2B04B40000000060000660000000001E00000000000000000000000000000000000000003CC44300000000000040FABC
:2B04DF000400000000000000000000180000000000000000000000000000000000000000300003000000000000C8F6E5
:2B050A000000000085188805010000980200000000000000000000000000000000000000300003000000000000C0F915
:2B053500000000200042A00400000002000000000000000000000000000000000000000004400000000000000040EB24
:2B0560000000000000000240000000000000000000000000000000000000000000000000000000000000000000C0E589
:2B058B00000000E0010EE2000000001E00000000000000000000000000000000000000000CC083000000000000C0DA6D
:2B05B600080000204892202800000082020000000000000000000000000000000000000004400800000000000050EFC1
:2B05E1000000000002200002000000800000000000000000000000000000000000000000B00453000000000000C0C0C4
:2B060C00000000E0210662210000000602000000000000000000000000000000000000003CC00300000000000040EB07
:2B0637000400000000088020000000180000000000000000000000000000000000000000300000000000000000C8C715
:2B066200000000002888040800000080040000000000000000000000000000000000000030001301000000000040F8B1
:2B068D000000002004022000000000420200000000000000000000000000000000000000044000000000000000C0E1D3
:2B06B8000000000040000000000000000000000000000000000000000000000000000000000000000000000000C0E730
:2B06E300000000E0001EE2010000000E00000000000000000000000000000000000000003CD000000000000000C0C26F
:2B070E00080000202182204800000092020000000000000000000000000000000000000004400000000000000050FE67
:2B073900000000002220000200000080000000000000000000000000000000000000000030004300000000000040C757
:2B076400000000600106E2210000000602000000000000000000000000000000000000003CC40300000000000040EDC8
:2B078F000400008020180020000000080000000000000000000000000000000000000000000003000000000000C8C5CB
:2B07BA00000000000880040800000088040000000000000000000000000000000000000030110300000000000040FA76
:2B07E500000000A0045AA20400000022020000000000000000000000000000000000000004400000000000000000D805
:2B0810000000000040100040000000000000000000000000000000000000000000000000000000000000000000C0F27B
:2B083B00000000E02018E0200000000E02000000000000000000000000000000000000000CC00000000000000080D44A
:2B086600080000200298220200000092000000000000000000000000000000000000000004400000000000000050D08B
:2B089100000000000899020201000000000000000000000000000000000000000000000030054B000000000000C0DB7B
:2B08BC0000000060011E60010000000602000000000000000000000000000000000000003CC00300000000000040F8F2
:2B08E700040000800018800000000008000000000000000000000000000000000000000030000300000000000048FE49
:2B091200000000008458040401000088040000000000000000000000000000000000000030000300000000000000EA2C
:2B093D00000000A00183A2090200005A040000000000000000000000000000000000000004400000000000000000CC50
:2B0968000000000001000081000000100000000000000000000000000000000000000000000000000000000000C0FA18
:2B09930000000080010E80211E02001804000000000000000000000000000000000000000CC00000000000000040EFD2
:2B09BE00080000802912880902000038000000000000000000000000000000000000000004400000000000000050DA12
:2B09E9000000008025008123200000980100000000000000000000000000000000000000300447000000000000C0FAAC
:2B0A1400000000E00106E0010608001E00000000000000000000000000000000000000003CC00300000000000000D6EE
:2B0A3F000400008021088001180000180000000000000000000000000000000000000000300003000000000000C8E54E
:2B0A6A00000000800388842980040038020000000000000000000000000000000000000030000300000000000040F286
:2B0A95002000022000022000000000020200000000000000000000000000000000000000044000000000000000C0E1E9
:2B0AC0000000000000000000000000000000000000000000000000000000000000000000000000000000000000C0E368
:2B0AEB00E0211E00000000000000000E00000000000000000000000000000000000000000CC00000000000000000CD1A
:2B0B1600240482040080022800000052040000000000000000000000000000000000000004400000000000000050C7AB
:2B0B41000C1020100220000200000020000000000000000000000000000000000000000030010700000000000080DD64
:2B0B6C0060001E60200662200000000608000000000000000000000000000000000000003CC44300000000000040F057
:2B0B97008801008201000220000000080000000000000000000000000000000000000000300003000000000000C8E919
:2B0BC200004840802998800900000088040000000000000000000000000000000000000030000300000000000000F007
:2B0BED000000000000000000000000000000000000000000000000000000000000000000000000000000000000C0E33A
:2B0C18002000022000022000022000022000022000020000000000044000044000044000044000044000044000C0E3AA
:2B0C43000000000000000000000000000000000000000000000000000000000000000000000000000000000000C0E3E3
:2B0C6E002400022000022000022000022000022000020000000000044000044000044000044000044000044000D0F62D
:2B0C99000C01100001100001100000100000000000000000000000000000000000000000200002000000000000C0FE01
:2B0CC4000000000000000000002000002000022000020000000000044000044000044000000000044000044000C0C3CA
:2B0CEF00080000000000000000000000000000000000000000000000000000000000000000000000000000000048E3A7
:2B0D1A002000022000022000022000022000022000020000000000044000044000044000044000044000044000C0E3A7
:2B0D45000000000000000000000000000000000000000000000000000000000000000000000000000000000000C0E3E0
:2B0D70000000000000000000000000000000000000000000000000000000000000000000000000000000000000C0E3B5
:2B0D9B000000000000000000000000000000000000000000000000000000000000000000000000000000000000C0E38A
:2B0DC6000000000000000000000000000000000000000000000000000000000000000000000000000000000000C0E35F
:2B0DF1000000000000000000000000000000000000000000000000000000000000000000000000000000000000C0E334
:2B0E1C000000000000000000000000000000000000000000000000000000000000000000000000000000000000C0E308
:2B0E47000000000000000000000000000000000000000000000000000000000000000000000000000000000000C0E3DD
:2B0E72000000000000000000000000000000000000000000000000000000000000000000000000000000000000C0E3B2
:2B0E9D000000000000000000000000000000000000000000000000000000000000000000000000000000000000C0E387
:2B0EC8000000000000000000000000000000000000000000000000000000000000000000000000000000000000C0E35C
:2B0EF3000000000000000000000000000000000000000000000000000000000000000000000000000000000000C0E331
:2B0F1E000000000000000000000000000000000000000000000000000000000000000000000000000000000000C0E305
:2B0F49000000000000000000000000000000000000000000000000000000000000000000000000000000000000C0E3DA
:2B0F74000000000000000000000000000000000000000000000000000000000000000000000000000000000000C0E3AF
:2B0F9F000000000000000000000000000000000000000000000000000000000000000000000500000000000000C0E67C
:2B0FCA000000000000000000000000000000000000000000000000000000000000000000000000000000000000C0E359
:2B0FF5000000000000000000000000000000000000000000000000000000000000000000000000000000000000C0E32E
:2B1020000000000000000000000000000000000000000000000000000000000000000000000000000000000000C0E302
:2B104B000000000000000000000000000000000000000000000000000000000000000000000000000000000000C0E3D7
:2B1076000000000000000000000000000000000000000000000000000000000000000000000000000000000000C0E3AC
:2B10A1000001100001100001100000100000000000000000000000000000000000000000000000000000000000C0F22F
:2B10CC002000000000020000000000000000000000000000000000000000000000000000000000000000000000C0E334
:2B10F700000000800008800008000000000000000000000000000000000000000000000000000000000000400080E717
:2B1122000000000000000000000000000000000000000000000000000000000000000000000000000000000000C0E3FF
:2B114D00000000400004400004000500000000000000000000000000000000000000000000000A00000000800080D808
:2B117800800008000048840000000400800000000000000000000000000000000000000000000000000220000040EF23
:2B11A3008000080000088400000000002000000000000000000000000000000000000000000000000000000000C0C766
:2B11CE000000000000000000000000000000000000000000000000000000000000000000000000004000040000C0E30F
:2B11F900000000000000000000000000000000000000000000000000000000000000000000800000000000000040EB20
:2B1224000000000080000000000000000000000000000000000000000000000000000000000000000000000000C0EB74
:2B124F0000000000800004C000000008000000000000000000000000000000000000000000000000000000000040EBFD
:2B127A00000000004000000000020008020000000000000000000000000000000000000000000000000000000040EFCE
:2B12A5000600000000000000000000000000000000000000000000000000000000000000000000000000000000C0E573
:2B12D0000000000000000000000000000000000000000000000000000000000000000000000000000000000000C0E350
:2B12FB000000000000000000000000000000000000000000000000000000000000000000000000000000000000C0E325
:2B1326000000000000000000000000000000000000000000000000000000000000000000000000000000000000C0E3F9
:2B1351000000001000000000010000020000000000000000000000000000000000000000000440000000000000C0C397
:2B137C000000000000200000000000200000000000000000000000000000000000000000000000000000000000C0E363
:2B13A7000000000000000000000000000000000000000000000000000000000000000000000000000000000000C0E378
:2B13D200000000000000000000000000000000000000000000000000000000000000000080000000000000000040E34D
:2B13FD000000000000000000020000000000000000000000000000000000000000000000000000040000004000C0C3FC
:2B1428000000000000000000000000000000000000000000000000000000000000000000000000000000000000C0E3F6
:2B14530000000000000000000000000000000000000000000000000000000000000000000000000C000000000000EF73
:2B147E00000000000000000000000000000000000000000000000000000000000000000000000004000000000080E7D8
:2B14A900000000000000000080040000000000000000000000000000000000000000000000000030010000001040D43F
:2B14D40000000000000000000600000000000000000000000000000000000000000000000000003C040000C00081E086
:2B14FF00000000000000000018000000000000000000000000000000000000000000000000000030000000000340FA3D
:2B152A00000000000000000098020000000000000000000000000000000000000000000000000030000000004780FC09
:2B1555000000000000000000020000000000000000000000000000000000000000000000000000040000004003C0F072
:2B1580000000000000000000000200000000000000000000000000000000000000000000000000000000000000C0E19D
:2B15AB0000000000000000001E00000000000000000000000000000000000000000000000000000C0000000003C0E147
:2B15D600080000000000000082040000000000000000000000000000000000000000000000000004000000004750EDD4
:2B1601000000000000000000200000000000000000000000000000000000000000000000000000700000000047C0C562
:2B162C0000000000000000001602000000000000000000000000000000000000000000000000003C040000C00380D028
:2B165700040000000000000000000000000000000000000000000000000000000000000000000030000000000348EFFA
:2B168200000000000000000008020000000000000000000000000000000000000000000000000030000000005340EC84
:2B16AD0000000000000000004A000000000000000000000000000000000000000000000000000004400000400040CF35
:2B16D8000000000000000000000400000000000000000000000000000000000000000000000000000000000000C0E73C
:2B17030000000000000000000E00000000000000000000000000000000000000000000000000003C080000C00300C7DF
:2B172E00080000000000000022020000000000000000000000000000000000000000000000000044000000409090F3CD
:2B175900000000000000000080040000000000000000000000000000000000000000000000000030048000001040D904
:2B17840000000000000000001600000000000000000000000000000000000000000000000000003CC00000C00341CA5A
:2B17AF000400000000000000080000000000000000000000000000000000000000000000000000000043000000C8D028
:2B17DA00000000000000000080020000000000000000000000000000000000000000000000000030110700004440F4A2
:2B180500000000000000000002200000000000000000000000000000000000000000000000000004400800400880E79B
:2B1830000000000000000000000000000000000000000000000000000000000000000000000000000080000080C0E3EA
:2B185B0000000000000000001EE0010000000000000000000000000000000000000000000000000CC00100C00100EFE6
:2B188600080000000000000042214800000000000000000000000000000000000000000000000004404600404A90FBE5
:2B18B100000000000000000080042800000000000000000000000000000000000000000000000030004800004400D6CE
:2B18DC0000000000000000001EE0010000000000000000000000000000000000000000000000003CC40200C00200D846
:2B190700040000000000000000000000000000000000000000000000000000000000000000000030000100000148DC5B
:2B1932000000000000000000800228000000000000000000000000000000000000000000000000300050000050C0D080
:2B195D0000000000000000003A0200000000000000000000000000000000004003000000000000044009004000C0D8BB
:2B1988000000000000000000100000000000000000000000000000000000000003000000000000000080000000C0C918
:2B19B300000000000000000018000000000000000000000000000000000000C0030000000000000CC04100C04040D809
:2B19DE00080000000000000038040000000000000000000000000000000000400300000000000004401000401050F66D
:2B1A0900000000000000000058000000000000000000000000000000000000004B000000000000700480000053C0C444
:2B1A340000000000000000001E020000000000000000000000000000000000C0030000000000003CC00200C00000FEE8
:2B1A5F000400000000000000180000000000000000000000000000000000000000000000000000300041000003C9F310
:2B1A8A00000000000000000018010000000000000000000000000000000000002800000000000030000400001380F831
:2B1AB50000000000000000005AA40400000000000000000000000000000000400000000000000004400000400960C512
:2B1AE0000000000000000000100040000000000000000000000000000000000000000000000000000000000080C0FE4D
:2B1B0B00000000000000000018E82000000000000000000000000000000000C0030000000000000CC00300C04180C9B3
:2B1B3600080000000000000018200200000000000000000000000000000000402800000000000004409000400418E2C8
:2B1B6100000000000000000098002800000000000000000000000000000000004800000000000030058000001048CB79
:2B1B8C0000000000000000001E620100000000000000000000000000000000C0030000000000003CC00300C00241E800
:2B1BB700040000000000000018800000000000000000000000000000000000004000000000000030004000000158CD91
:2B1BE200000000000000000038022800000000000000000000000000000000000400000000000030000400004480EF8B
:2B1C0D0000000000000000001A300000000000000000000000000000000000402100000000000004400300400340F93E
:2B1C3800000000000000000018000000000000000000000000000000000000000000000000000000000201000040C85E
:2B1C6300000000000000000018000000000000000000000000000000000000C0410000000000000C000300000341FFEB
:2B1C8E00040000000000000038100000000000000000000000000000000000400000000000000004005300000350D81D
:2B1CB9000C00000000000000880440000000000000000000000000000000000048000000000000B0004B000008C0E736
:2B1CE40000000000000000001E600000000000000000000000000000000000C0020000000000003CC40300C08040D43E
:2B1D0F00080000000000000018820100000000000000000000000000000000004100000000000030004300004348C700
:2B1D3A00000000000000000098800501000000000000000000000000000000000400000000000030000700001300C151
:2B1D6500000002000000000082200000200000000000000000000000000004400000000000000004400800400800E7D0
:2B1D90000000000000000000000200000000000000000000000000000000000000000000000000000040000040C0E105
:2B1DBB0000001E000000000000002000E0010000000000000000000000000000400000000000000C004000004000E929
:2B1DE6000800820400000000200202002048000000000000000000000000000000000000000000040010000004D0FDD3
:2B1E11000000000400000000800428000008010000000000000000000000800048000000000000B00480000010C0CB56
:2B1E3C0000001E000000000006600000E0010000000000000000000000000CC8000000000000003CC00000C00001C4C1
:2B1E6700040000020000000000000000002000000000000000000000000030104000000000000030004000000048FFF3
:2B1E9200000040000000000090822900000400000000000000000000000030010700000000000030000600004600DD15
:2B1EBD000000000000000000000000000000000000000000000000000000000000000000000000000000000000C0E357
:2B1EE8002000022000022000022000022000022000020000000000044000044000044000044000044000044000C0E3C8
:2B1F13000000000000000000000000000000000000000000000000000000000000000000000000000000000000C0E300
:2B1F3E002400022000022000022000022000022000020000000000044000044000044000044000044000044000D0F64A
:2B1F69000C00100000000000100001000001000000000000000000000000000002000000000000200002000002C0EF4A
:2B1F94002000002000022000000000020000022000020000000000044000040000044000044000000000040000C0E323
:2B1FBF00080000000000000000000000000000000000000000000000000000000000000000000000000000000048E3C4
:2B1FEA002000022000022000022000022000022000020000000000044000044000044000044000044000044000C0E3C5
:2B2015000000000000000000000000000000000000000000000000000000000000000000000000000000000000C0E3FD
:2B2040000000000000000000000000000000000000000000000000000000000000000000000000000000000000C0E3D2
:2B206B000000000000000000000000000000000000000000000000000000000000000000000000000000000000C0E3A7
:2B2096000000000000000000000000000000000000000000000000000000000000000000000000000000000000C0E37C
:2B20C1000000000000000000000000000000000000000000000000000000000000000000000000000000000000C0E351
:2B20EC000000000000000000000000000000000000000000000000000000000000000000000000000000000000C0E326
:2B2117000000000000000000000000000000000000000000000000000000000000000000000000000000000000C0E3FA
:2B2142000000000000000000000000000000000000000000000000000000000000000000000000000000000000C0E3CF
:2B216D000000000000000000000000000000000000000000000000000000000000000000000000000000000000C0E3A4
:2B219800000000000000000008000000000000000000000000000000000000000000000000000000000000000040EBE9
:2B21C3000000000000000000000000000000000000000000000000000000000000000000000000000000000000C0E34E
:2B21EE000000000000000000100000000000000000000000000000000000000000000000000000000000000000C0F204
:2B2219000000000000000000000000000000000000000000000000000000000000000000000000000000000000C0E3F7
:2B2244000000000000000000000000000000000000000000000000000000000000000000000000000000000000C0E3CC
:2B226F000000000000000000000000000000000000000000000000000000000000000000000000000000000000C0E3A1
:2B229A00000000000000000000800000000000000000000000000000000000000000000000000000000000060040ED66
:2B22C500000000000000000000800000000000000000000000000000000000000000000000000000000000000040EB43
:2B22F0000000000000000000000000000000000000000000000000000000000000000000000000000000000800C0EB10
:2B231B000000000000000000000000000000000000000000000000000000000000000000000000000000000000C0E3F4
:2B2346000000000000000000000000000000000000000000000000000000000000000000000000000000000000C0E3C9
:2B237100000014000000000010400100000100000000000000000000000020000000000000000010800200000240D80F
:2B239C00000000000000000004000000000000000000000000000000000000000000000000000000000000000080E7AB
:2B23C700000000000000000000400000000000000000000000000000000000000000000000000000000000008180FEAC
:2B23F200000000000000800000000000000000000000000000000000000000000000000000000000000100000040FA05
:2B241D00000000000000200000400000000000000000000000000000000000000000000000000000400000800141CA68
:2B2448000000080000000004080041002001000000000000000000000000200002000000000000044002200001A0F4D6
:2B2473000000080000000000080040000000000000000000000000000000000000000000000000000000000001C0F637
:2B249E00000000000000000000800000800000000000000000000000000010000100000000000000000104000080F687
:2B24C9000000000000000000000000000000000000000000000000000000000000000000000000000000000080C0EBBD
:2B24F400000000000000000002000000008000000000000000000000000000400000000000000000008000000080C734
:2B251F000000000000000000021080000000000000000000000000000000000000000000000000000000000000C0DB64
:2B254A00000000000000000040000000000000000000000000000000000000000000000000000000000000000080E3C3
:2B2575000A00000000000000000800000000000000000000000000000000000000000000000000000000000000C0E188
:2B25A0000000000000000000000000000000000000000000000000000000000000000000000000000000000000C0E36D
:2B25CB000000000000000000000000000000000000000000000000000000000000000000000000000000000000C0E342
:2B25F6000000000000000000000000000000000000000000000000000000000000000000000000000000000000E0C119
:2B2621000000000000000000000000000000000000000000000000000000000000000000000000000400000000C0E7E3
:2B264C000000000000000000000000000000000000000000000000000000000000000000000000000000000000C0E3C0
:2B2677000000000000000000000000000000000000000000000000000000000000000000000000000000000000C0E395
:2B26A200000000000000000000000000000000000000000000000000000000020000000000000000000000002840E3C0
:2B26CD000000000000000000000000000000022000020000000000000000000000044000000000000000000000C0C3F7
:2B26F8000000000000000000000000000000000000000000000000000000000000000000000000000000000000C0E314
:2B27230000000000000000000000000000000660000600000000000000000000000CC00000000000000000000080C70C
:2B274E000000000000000000000000000000022000020000000000000000000000044000000000000000000000C0C375
:2B277900000000000000000000000000000038800358000000000000000000000070001300000000000000000040FB64
:2B27A40000000000000000000000000000001EE2211E02000000000000000000003CC44300000000000000000000DCAA
:2B27CF00000000000000000000000000000018800118000000000000000000000030000300000000000000000040FAC1
:2B27FA00000000000000000000000000000018800118000000000000000000000030000300000000000000000040FA96
:2B2825000000000000000000000000000000022000020000000000000000000000044000000000000000000000C0C39D
:2B2850000000000000000000000000000000000000000000000000000000000000000000000000000000000000C0E3BA
:2B287B0000000000000000000000000000001E60001E00000000000000000000000CC00000000000000000000080C783
:2B28A6000400000000000000000000000000222400020800000000000000000000044000000000000000000000D0F8A7
:2B28D1000C0000000000000000000000000018820138000000000000000000000030000700000000000000000000D6F0
:2B28FC0000000000000000000000000000001EE0211E02000000000000000000003CC44300000000000000000000DE51
:2B2927000800000000000000000000000000008001000000000000000000000000300003000000000000000000C8FA07
:2B295200000000000000000000000000000038880138080000000000000000000030000300000000000000000040FAEC
:2B297D000000000000000000000000000000022000020000000000000000000000044000000000000000B4100000E41F
:2B29A8000000000000000000000000000000000000000000000000000000000000000000000000000000200000C0C163
:2B29D30000000000000000000000000000000660000600000000000000000000000CC08300000000000030000080CF9F
:2B29FE00040000000000000000000000000002200002000000000000000000000004400000000000000010020048DC0C
:2B2A29000C00000000000000000000000000988005180200000000000000000000B0044300000000000030080098D6A2
:2B2A540000000000000000000000000000001EE2211E00000000000000000000003CC0030000000000002C0000C0F03D
:2B2A7F00080000000000000000000000000018800118000000000000000000000030000000000000000030100050F3C0
:2B2AAA00000000000000000000000000000018800118000000000000000000000030000701000000000050000040FB8D
:2B2AD5000000000000000000000000000000022000020000000000000000000000044000000000000000B4080000FCB6
:2B2B00000000000000000000000000000000000000000000000000000000000000000000000000000000200000C0C109
:2B2B2B00000000000000000000000000000006E0010600000000000000000000000CC00000000000000030000000EDA9
:2B2B5600080000000000000000000000000002200403000000000000000000000004400000000000000010090090D264
:2B2B81000000000000000000000000000000188025980000000000000000000000700403000000000000300200C0CD9E
:2B2BAC0000000000000000000000000000001EE2011E02000000000000000000003CC0430000000000002C0000C0F4BE
:2B2BD700040000000000000000000000000018000018000000000000000000000030000300000000000030000048DC18
:2B2C0200000000000000000000000000000018808318000000000000000000000030000300000000000010110040D010
:2B2C2D000000000000000000000000000000022000020000000000000000000000044000000000000000341000A0C66A
:2B2C58000000000000000000000000000000000000000000000000000000000000000000000000000000200000C0C1B0
:2B2C830000000000000000000000000000000660000600000000000000000000003CC00000000000000030000080C747
:2B2CAE00040000000000000000000000000002200002000000000000000000000004610000000000000010200058CE18
:2B2CD9000C00000000000000000000000000388229180000000000000000000000B0004700000000000030200088CB2F
:2B2D040000000000000000000000000000001EE0011E02000000000000000000003CC4030000000000002C0000C0F6A0
:2B2D2F000800000000000000000000000000188001180000000000000000000000000003000000000000300000D8EBCA
:2B2D5A00000000000000000000000000000018800118000000000000000000000070100300000000000090100080EB0F
:2B2D85000000000000000000000000000000022000020000000000000000000000044000000000000000740800C0FC83
:2B2DB0000000000000000000000000000000000000000000000000000000000000000000000000000000200000C0C157
:2B2DDB0000000000000000000000000000000660000600000000000000000000000CC00000000000000030000080F4F1
:2B2E06000800000000000000000000000000022000020000000000000000000000044000000000000000100800D0C386
:2B2E3100000000000000000000000000000098822198020000000000000000000030055300000000000030110040DABE
:2B2E5C0000000000000000000000000000001EE0011E00000000000000000000003CC0030000000000002C0000C0F053
:2B2E87000400000000000000000000000000188001180000000000000000000000300003000000000000300000C8C57B
:2B2EB200000000000000000000000000000018800118000000000000000000000030000300000000000050200000CBD6
:2B2EDD000000000000000000000000000000022000020000000000000000000000044000000000000000440000C0C797
:2B2F08000000000000000000000000000000000000000000000000000000000000000000000000000000100400C0F6D4
:2B2F330000000000000000000000000000000660000600000000000000000000000CC0000000000000000C000040CB24
:2B2F5E00040000000000000000000000000002200002000000000000000000000004400000000000000004050008CEFD
:2B2F89000C0000000000000000000000000058802358020000000000000000000030040B000000000000800400D8CD54
:2B2FB40000000000000000000000000000001EE2011E00000000000000000000003CC0430000000000000C0000C0D4F4
:2B2FDF00080000000000000000000000000018800118000000000000000000000030000300000000000000040050E7A0
:2B300A00000000000000000000000000000018800118000000000000000000000030000300000000000040000000FA7D
:2B3035000000000000000000000000000000022000020000000000000000000000044000000000000000740000C0F4E0
:2B3060000000000000000000000000000000000000000000000000000000000000000000000000000000200400C0C59C
:2B308B0000000000000000000000000000000660000600000000000000000000000CC00000000000000030000080F43E
:2B30B6000400000000000000000000000000022000020000000000000000000000044000000000000000300500D0E09E
:2B30E1000C0000000000000000000000000058820938020000000000000000000030014B000000000000B0040080E605
:2B310C0000000000000000000000000000001EE0211E00000000000000000000003CC4030000000000003C0000C0E775
:2B3137000800000000000000000000000000188001180000000000000000000000300003000000000000300400C8CDB8
:2B316200000000000000000000000000000018800118000000000000000000000030000300000000000070000000C925
:2B318D000000000000000000000000000000000000000000000000000000000000000000000000000000000000E0C176
:2B31B8002000022000022000022000022000022000020000000000044000044000044000044000044000044000C0E3E5
:2B31E3000000000000000000000000000000000000000000000000000000000000000000000000000000000000C0E31E
:2B320E00240002200002200002200002200002200002000000000004400004400004400004400004400004400058FED7
:2B3239000C0000000000000000000000000010000110000000000000000000000020000200000000000020000048D4DF
:2B326400200002200002200002200002200000000000000000000004400004400000000004400004400000400080C700
:2B328F00080000000000000000000000000000000000000000000000000000000000000000000000000000000058F2C2
:2B32BA002000022000022000022000022000022000020000000000044000044000044000044000044000044000C0E3E2
:2B32E5000000000000000000000000000000000000000000000000000000000000000000000000000000000000C0E31B
:2B3310000000000000000000000000000000000000000000000000000000000000000000000000000000000000C0E3EF
:2B333B00000000000000000000000000000000000000000000000000000000000000000000000000000008000040EB34
:2B3366000000000000000000000000000000000000000000000000000000000000000000000000000000000000C0E399
:2B3391000000000000000000000000000000000000000000000000000000000000000000000000000000001000C0F34E
:2B33BC000000000000000000000000000000000000000000000000000000000000000000000000000000000000C0E343
:2B33E7000000000000000000000000000000000000000000000000000000000000000000000000000000000000C0E318
:2B3412000000000000000000000000000000000000000000000000000000000000000000000000000000000000C0E3EC
:2B343D000000000000000000000000000000000000000000000000000000000000000000000000000000002000C0C3C1
:2B346800000000000000000000000000000000000000000000000000000000000000000000000000000000000084E7CE
:2B3493000000000000000000000000000000000000000000000000000000000000000000000000000000000000C0E36B
:2B34BE000000000000000000000000000000000000000000000000000000000000000000000000000000000000C0E340
:2B34E9000000000000000000000000000000000000000000000000000000000000000000001000000000000000C0F3F5
:2B351400000000000000000000000000000000800000000000000000000000000000000000000000000000000040EBE1
:2B353F00000000000000000000000000000000200500000000000000000000000000000000100000000000000080C2EA
:2B356A00000000000000000000000000000000000400000000000000000000000010000000000000000000000080F2B0
:2B3595000000000000000000000000000000000000000000000000000000000000100000000000000000000000C0F249
:2B35C0000000000000000000000000000000000000000000000000000000000000000000000000000000000000C0E33D
:2B35EB000000000000000000000000000000000000000000000000000000000000000000000000000000200000C0C114
:2B3616000000000000000000000000000000000000000000000000000000000000000000000000000000100000C0F2C7
:2B364100000000000000000000000000000000000000000000000000000000000000000000000000000014000080F6D4
:2B366C00000000000000000000000000000010000000000000000000000000000000A00000000000000004120000CCA1
:2B369700000000000000000000000000000000000000000000000000000000000000000000800000000000000040EB5D
:2B36C200000000000000000000000000000000000000000000000000000000000000000000000000000000400080E736
:2B36ED001A0000000000000000000000000000000000000000000000000000000000000000800000000010400010F5C3
:2B371800000000000000000000000000400300000030000000000000000000000054000000000010000004000084E344
:2B374300000000000000000000000000000000000000000000000000000000000010000000000004000000000080F6D1
:2B376E000000000000000000000000008000000000080000000000000000000000000000000000000000000000C0E305
:2B379900000000000000000000000000000000008000000000000000000000000000000000000000000040040080EFD2
:2B37C400000000000000000000000000000000000000000000000000000000000000000000000000000080000040E337
:2B37EF000000000000000000000000000000000000000000000000000000000000000000000000000000000200C0E10C
:2B381A000000000000000000000000000000000000000000000000000000000000000000000000000000000000C0E3E0
:2B3845000E00000000000000000000000000000000000000000000000000000000000000000000000000000000D0FC7E
:2B3870000000000000000000000000000000000000000000000000000000000000000000000000000000000000C0E38A
:2B389B000000000000000000000000000000000000000000000000000000000000000000000000000000000000C0E35F
:2B38C6000000000000000000000000000000000220000200000000000000000000000440000000000000000000C0E1CE
:2B38F1000000000000000000000000000000000000000000000000000000000000000000000000000000000000C0E309
:2B391C00000000000000000000000000000000000000000000000000000000000000000000000000000000080084EF05
:2B394700000000000000000000000000000000000000040000000000000000000000000000000000000080000040E7AA
:2B3972000000000000000000000000000000000000000000000000000000000000000000000000000000000000C0E387
:2B399D000000000000000000000000000000000000000000000000000000000000200000000010100000000000C0D12E
:2B39C800000000000000000000000000000000000000000000000000000000000000040000804020000000000040C9E7
:2B39F3000000000000000000000000000000000000000000000000000000000000000000000000000000000000C0E306
:2B3A1E000000000000000000000000000000000000000000000000000000000000000000000000000000000000C0E3DA
:2B3A49000012200112200112200112200112200112200100000000400224400224400724400274E0022440022440C1C6
:2B3A7400000CC0000CC0000CC0000CC0000CC0000CC00000000000800118800118800918800198900118800118C0F27F
:023A9F00FFFF27
:00000001FF
