:020000040000FA
:2B000000FFFF62FF2500FFFFFFFFFFFFFFFFFFFFFFFFFFFFFFFFFFFFFFFFFFFFFFFFFFFFFFFFFFFFFFFFFFFFFFFFFF76
:2B002B00601886611886611886611886611886611886010000000018866118866118866118866118866118866180E74F
:2B005600401004411004411004411004411004411004010000000010044110044110044110044110044110044180E71C
:2B008100000000000000000000000000000000000000000000000000000000000000000000000000000000000080E7ED
:2B00AC00000000000000000000000000000000000000000000000000000000000000000000000000000000000080E7C2
:2B00D700000000000000000000000000000000000000000000000000000000000000000000000000000000000080E797
:2B010200000000000000000000000000000000000000000000000000000000000000000000000000000000000080E76B
:2B012D000201000000000000000000000000000000000000000000000000000000000000000000000004000000A0926E
:2B015800000000000000000000000000000000000000000000000000000000000000000000000000000000000080E715
:2B018300000000000000000000000000000000000000000000000000000000000000000000000000000000000080E7EA
:2B01AE00080000000000000000000000000000000000000000000000000000000000000000000000000000000080EFAF
:2B01D900004000000000000000000000000000000000000000000000000000000000000000000000000001000008FBB7
:2B020400000000000000000000000000000000000000000000000000000000000000000000000000000000000080E768
:2B022F00000000000000000000000000000000000000000000000000000000000000000000000000000000000080E73D
:2B025A00000000000000000000000000000000000000000000000000000000000000000000000000000000000080E712
:2B028500000000000000000000000000000000000000000000000000000000000000000000000000000000000080E7E7
:2B02B000000000000000000000000000000000000000000000000000000000000000000000000000000000000008EF2C
:2B02DB00000000000000000000000000000000000000000000000000000000000000000000000000000000000080E791
:2B030600000000000000000000000010000000000000000000000000000000000400000000000000000000000080B286
:2B033100000004000000000000000000000000000000000000000000000000000000000000000000000010000080B657
:2B035C00000000000000000000000008000000000000000000000000000080000800000000000000000880000000EF6F
:2B038700000000000000000000000082080000000000000000000000000008002000000000001000000000005180D0E8
:2B03B200020000000000000000000000000000000000000000000000000000000000000000000000000000000008ED29
:2B03DD00000000000000000000000000000000000000000000000000000000000000000000000000000000000080E78E
:2B040800000000000000000000000000000000000000000000000000000000000000000000001000000000005180F2F6
:2B0433000000000000000000000000820E0000000000000000000000000008002000000000000000000000000080C3A3
:2B045E00000000000000000000000000010000000000000000000000000000204000000000000000000000000080C2D0
:2B048900021020010000000000008000000000000000000000000000000080000000000000000000004080040008C782
:2B04B400000000800008800008000000800008800008000000000020000200000020000220000220000000000280E70E
:2B04DF00800008800008800008800008800008800008000000000020000220000220000220000220000220000280E78F
:2B050A00000000000000000000008010000000000000000000000000000040000400000000000000000000000080FE74
:2B053500020000000000000000600216000000000000000000000000000078C00500000000000000000000000008BC20
:2B056000020000000000000000000212000000000000000000000000000040820400000000000000000000000088F418
:2B058B00040000000000000000400114000000000000000000000000000070000500000000000000000000000090D017
:2B05B600020000000000000000008112000000000000000000000000000040800400000000000000000000000088CD6C
:2B05E100020000000000000000000012000000000000000000000000000040810400000000000000000000000088D5B9
:2B060C00020000000000000000000130000000000000000000000000000060000401000000000000000000000008FD26
:2B0637000000000000000000000021340000000000000000000000000000E0100D00000000000000000000000080A422
:2B066200000000000000000000004110000000000000000000000000000000081000000000000000000000000080EA9A
:2B068D00000000000000000000E00316000000000000000000000000000098800100000000000000000000000080CDE3
:2B06B800020000000000000000000512000000000000000000000000000000040002000000000000000000000008AD43
:2B06E300000000000000000000C001140000000000000000000000000000D0000B0000000000000000000000000089B3
:2B070E00000000000000000000000512000000000000000000000000000040000600000000000000000000000080A142
:2B0739000000000000000000000003120000000000000000000000000000801026000000000000000000000000009139
:2B076400000000000000000000808110000000000000000000000000000040000600000000000000000000000000C54E
:2B078F0002000000000000000080011401000000000000000000000000004008860000000000000000000000008886CB
:2B07BA00000110000000000000000800000000000000000000000000000040000400000000000000000440000000E78C
:2B07E500600116000000000000600226100000000000000000000000000058800500000000000000800558000080F7A9
:2B081000200112000000000000000000000000000000000000000000000048800400000000000000800448000080E78B
:2B083B00420114000000000000C00834080000000000000000000000000050000500000000000000000550000008DEA7
:2B086600220112000000000000800110080000000000000000000000000048800400000000000000800448000088ED8C
:2B089100240112000000000000800101000000000000000000000000000048800400000000000000800448000010FBE0
:2B08BC00020110000000000000800110000000000000000000000000000040108400000000000000008440080088FD48
:2B08E7004223140100000000008021100200000000000000000000000000D0000500000000000000000450000008D5B3
:2B091200020110000000000000004180000000000000000000000000000000000200000000000000000440000088DA3E
:2B093D00600116000000000000E00306000000000000000000000000000098820704000000000000800558000080F8B5
:2B096800200112000000000000000100010000000000000000000000000000022200000000000000800448000080D5EA
:2B099300400114000000000000C0052C0000000000000000000000000000B0000700000000000000000550000000D413
:2B09BE00200112000000000000000158000000000000000000000000000060200200000000000000800448000088C7E5
:2B09E900220112000000000000000718000000000000000000000000000060001200000000000000800448000000CE83
:2B0A1400020330000000000000808118000000000000000000000000000060000602000000000000008440100080D5D8
:2B0A3F004203340000000000008001180200000000000000000000000000600806000000000000000005D0000000EF46
:2B0A6A00020110000000000000000108000000000000000000000000000040000000000000000000000440000000B809
:2B0A950060011600000000000060011E100000000000000000000000000058800904000000000000800558000008F373
:2B0AC0002001120000000000002001080000000000000000000000000000480008000000000000008004480000009201
:2B0AEB004001140000000000004001BC000000000000000000000000000050000500000000000000000550000080CD97
:2B0B1600200112000000000000200108000000000000000000000000000048000402000000000000800448000080F6C8
:2B0B4100200112000000000000200148000000000000000000000000000048000000000000000000800448000008DEF3
:2B0B6C00020110000000000000000118080000000000000000000000000040080400000000000000000441080000F59C
:2B0B9700022310010000000000401118000000000000000000000000000040008400000000000000000D40000080946F
:2B0BC200020010000000000000000110000000000000000000000000000040000400000000000000000000000080F42D
:2B0BED0062001700000000000060011600000000000000000000000000005880050000000000000080011C400080E4CF
:2B0C1800800512000000000000200112000000000000000000000000000048800400000000000000002660010088808C
:2B0C4300C00314000000000000400114000000000000000000000000000050000500000000000000000770000000CDC1
:2B0C6E00000012000000000000200112000000000000000000000000000048800400000000000000000000020080D4F4
:2B0C9900800912000000000000200112000000000000000000000000000048800400000000000000002660000080CDC3
:2B0CC400020030000000000000000310000000000000000000000000000040108400000000000000000000000008E400
:2B0CEF008001300000000000004003100100000000000000000000000000C0000400000000000000000660000080AE7D
:2B0D1A00000100000000000000000108000000000000000000000000000040000400000000000000000040000000AB75
:2B0D450060010610000000000060011E10000000000000000000000000005880050000000000000080015C000000FAC9
:2B0D7000200118000000000000200188000000000000000000000000000048800400000000000000000648000080DC00
:2B0D9B0042015C00000000000040013C000000000000000000000000000050000500000000000000001F50000088A81D
:2B0DC600200100000000000000200108000000000000000000000000000048800400000000000000001048000080A272
:2B0DF100200198000000000000200168000000000000000000000000000048800400000000000000000648000080BA41
:2B0E1C000003000000000000000001180800000000000000000000000000400804010000000000000000401000009852
:2B0E4700000318000000000000001118000000000000000000000000000050000C000000000000000006C0000008FF13
:2B0E7200020000000000000000000110000000000000000000000000000040000200000000000000000400000080C7B5
:2B0E9D00620007100000000000600116000000000000000000000000000078C00704000000000000800518400080E1B9
:2B0EC800820558000000000000200112000000000000000000000000000040012200000000000000800460010000ABFA
:2B0EF300C2011C0000000000004001140000000000000000000000000000F0000F000000000000000005F0000000C7E5
:2B0F1E00000880000000000000200112000000000000000000000000000040011200000000000000800400000088C5C9
:2B0F4900800118000000000000200112000000000000000000000000000040000A00000000000000800460020080A958
:2B0F7400000000000000000000000330000000000000000000000000000060000602000000000000000401000080939F
:2B0F9F008001180000000000000003300000000000000000000000000000E0100600000000000000000C60000080D5A4
:2B0FCA001A00200000000000000000010400000000000000000000000000004000010000000000000000800000009B61
:2B0FF500008200000000000000000200000000000000000000000000000080000000000000000000000802000080CF74
:2B102000000000800008800008000000800008800008000000000020000200000020000220000220000000000280E796
:2B104B00800008800008800008800008800008800008000000000020000220000220000220000220000220000280E717
:2B107600200822000000000000000300000000000000000000000000000008800000000000000000002800020C00B292
:2B10A100000000000000000000000000000000400044000000000000000000000000000000000110000100040080B654
:2B10CC00000000000000000000000000000000000000000000000000000000000000000000000000000000000080E792
:2B10F700000000000000000000000000000000000000000000000000000000000000000000000000000000000080E767
:2B112200200822000000000000000200000000400044000000000000000008800000000000000110002900060800B64C
:2B114D00000410000000000000000330000000000000000000000000000080000800000000000000000000000080B276
:2B117800000000000000000000000000000000000000000000000000000000000000000000000000000000000080E7E5
:2B11A300000001100000000000002000100000000000000000000000000000400004000000000000000004400080F5E3
:2B11CE00400004000000000000408804010000000000000000000000000000304000000000000000000000000000DA9B
:2B11F9000000000000000000004000010C0000000000000000000000000000000000000000000000000000000080BB43
:2B122400000000000000000000000000000000000000000000000000000000080001000000000000000000000080FF17
:2B124F00000000000000000000000000000000000000000000000000000000000000000000000000000000000080E70D
:2B127A00000000000000000000000000000000000000000000000000000000000000000000000000000000000080E7E2
:2B12A500000000000000000000000000000000000000000000000000000000020000000000000000000000000080E5B7
:2B12D000000000000000000000002000020000000000000000000000000000008000000000000000000000000080EFE2
:2B12FB00000000000000000000000000000000000000000000000000000000000102000000000000000000000080D66F
:2B132600000000000000000000004000000000000000000000000000000020010000000000000000000000000080C0FB
:2B135100000008000000000000000000000000000000000000000000000000000000000000000000000020000000CD7C
:2B137C00000000000000000000000000000000000000000000000000000000022000000000000000002000020080E79B
:2B13A700080000000000000000000000000000000000000000000000000000000000000000000000000000000080EFA4
:2B13D200000000400000000000000000000000000000000000000010000000000000000000000000000000000080B66A
:2B13FD00000000000000000000000000000000000000000000000000000000000000000000000000000000000080E75E
:2B142800000000000000000000000000000000000000000000000000000000000000000000000000000000000080E732
:2B145300000000004000000000000000000000000000000000000000100000000000000000000000000000000090E2AC
:2B147E00000000000000000000000000000000000000000000000000000000000000000000000000000000000080E7DC
:2B14A900000000000000000000000000000000000000000000000000000000000000000000000000000000000080E7B1
:2B14D400000000000000000000000000000000000000000000000000000000000000000000000000000000000080E786
:2B14FF000000000000000000000000000000000000000000000000000000000000000000000000000000000000C0A35F
:2B152A000000000000000000000000000000000000000000000000000000000000000000000000000000000000D0B214
:2B155500000000000000000000000000000000000000000000000000000000000000000000000000000000000080E704
:2B158000000000000000000000000000000080000000000000000000000000000000000400000000000000000000A319
:2B15AB00000000000004000000000000000000000000000000000000000100000000000000000000000000000080B6DA
:2B15D600000000000000000000000000000000000000000000000000000000000000000000000000000000000080E783
:2B160100000000000000000000000000000080100000000000000000000000000000000800001000000000005180E263
:2B162C00020000000000000000000000000000000000000000000000000000000000000000000000000000000008ED9C
:2B165700000000000000000000000000000000000000000000000000000000000000000000000000000000000008EF71
:2B168200000000000000000000000000000000000000000000000000000000000000000000001000000000005190E369
:2B16AD00000000000000000000000000000080140000000000000000000000000000000800000000000000000008FB73
:2B16D800000000000200000000000000008000040000000000000080000000000000004000000000000000000088C554
:2B170300020000000220010000000000000220000000000000000080004800000000200000000000000000000008C8BC
:2B172E00800008000000800008800008000000800008000000000000000020000200000020000220000220000280E781
:2B175900800008800008800008800008800008800008000000000020000220000220000220000220000220000280E702
:2B178400000000000000000000000000000010000000000000000000000000000000000400000000000000000080B2F4
:2B17AF00020000000000000000000000608216000000000000000000000000000098A00500000000000000000088B29E
:2B17DA00020000000000000000000000000212000000000000000000000000000000A004000000000000000000009A90
:2B1805000400000000000000000000004003140000000000000000000000000000D0000500000000000000000000C1C7
:2B183000020000000000000000000000008112000000000000000000000000000040A00400000000000000000000E52F
:2B185B000200000000000000000000000000120000000000000000000000000000008004000000000000000000009832
:2B188600020000000000000000000000000110000000000000000000000000000040000404000000000000000008AD27
:2B18B100000000000000000000000000002114010000000000000000000000000040080D00000000000000000000BDC4
:2B18DC00000000000000000000000000000840000000000000000000000000000040000400000000000000000000A3B2
:2B190700000000000000000000000000600206000000000000000000000000000078C00500000000000000000080A7E9
:2B193200020000000000000000000000000800080000000000000000000000000040810400000000000000000008ECBF
:2B195D00000000000000000000000000C0002C0000000000000000000000000000F0000500000000000000000088EF07
:2B198800000000000000000000000000800318000000000000000000000000000040800400000000000000000010DCE9
:2B19B300000000000000000000000000800198000000000000000000000000000040820400000000000000000008E53D
:2B19DE00000000000000000000000000800118000000000000000000000000000060200400000000000000000008EDCC
:2B1A0900020000000000000000000000802118020000000000000000000000000060000D01000000000000000088CE31
:2B1A3400000000000110000000000000002110000000000000000040000400000040000000000000000000000080A1A0
:2B1A5F00000000600116000000000000E00116000000000000000058800500000058802100000000000000000000A96F
:2B1A8A00000000200112000000000000000512000000000000000048800400000048000800000000000000000080CF7C
:2B1AB500000000400114000000000000C00314000000000000000050000500000050000B00000000000000000008A37F
:2B1AE000020000200112000000000000000112000000000000000048800400000048001600000000000000000000EE7B
:2B1B0B00020000200112000000000000000912000000000000000048800400000048000600000000000000000080EFD6
:2B1B360002000000111000000000000080811002000000000000004040040400004040060000000000000000000084BC
:2B1B61000200004003140100000000008001340000000000000000C0000D000000C00086000000000000000000809720
:2B1B8C00000000000110000000000000000108000000000000000040000400000040000004000000000000000088F212
:2B1BB70000000060011600000000000060011E100000000000000058800500000058800100000000000000000000BB8C
:2B1BE2000000002001120000000000002001880000000000000000488004000000480000000000000000000000009256
:2B1C0D0000000040011400000000000040013C0000000000000000500005000000500005040000000000000000008D9F
:2B1C3800020000200112000000000000200148000000000000000048800400000048000402000000000000000008B809
:2B1C6300000000200112000000000000200128000000000000000048800400000048000000000000000000000008B806
:2B1C8E00000000000110010000000000001118080000000000000040100401000040100400000000000000000010E649
:2B1CB9000000004011340000000000004003180000000000000000C0000D000000C0008400000000000000000008BF48
:2B1CE40000000000010000000000000000010001000000000000004000040000004000020100000000000000000898AB
:2B1D0F00020000600106100000000000600106000000000000000058800500000058800F00000000000000000088DF9E
:2B1D3A0000000020011800000000000020010001000000000000004880040000004800220000000000000000008093DA
:2B1D650000000040015C000000000000400134000000000000000050000500000050000F00000000000000000080AB62
:2B1D90000000002001000000000000002001100800000000000000488004000000480002000000000000000000009028
:2B1DBB0000000020019800000000000020010000000000000000004880040000004800120000000000000000008899DC
:2B1DE600020000000100000000000000000110000000000000000040400404000040400602000000000000000080B678
:2B1E11000200000011180000000000004011100200000000000000D0000C000000D00006000000000000000000808D59
:2B1E3C00020000000010000000000000000108000000000000000040000000000000020400000000000000000000EF2B
:2B1E670002000060001700000000000060011E100000000000000058800104000098800500000000000000000080BC12
:2B1E9200000000800512000000000000200188000000000000000048001600000000800400000000000000000088DD9E
:2B1EBD00000000C0031400000000000040011C0000000000000000500007000000B00205000000000000000000008335
:2B1EE8000000000008120000000000002001080000000000000000480020000000608004000000000000000000808B35
:2B1F13000000008001120000000000002001680000000000000000480006000000E0840400000000000000000000943D
:2B1F3E00020000000010010000000000000118080000000000000040100000000060000404000000000000000088CB39
:2B1F69000000008001300000000000000011180000000000000000D0000600000060080C00000000000000000080DDCC
:2B1F9400000000000100000000000000000110000000000000000000000400000040000400000000000000000080B296
:2B1FBF00000000600106100000000000600116000000000000000018C00500000058800500000000000000000080E2ED
:2B1FEA00000000200118000000000000200112000000000000000060820400000048800400000000000000000080E747
:2B20150002000040017C000000000000400114000000000000000070000500000050000500000000000000000088A199
:2B2040000000002001800000000000002001120000000000000000008104000000488004000000000000000000809B35
:2B206B00000000200118000000000000200112000000000000000060800400000048800400000000000000000080E5C9
:2B209600000000001100000000000000001110000000000000000000000401000040100400000000000000000080B262
:2B20C100000000000318000000000000000310010000000000000060000C000000D0000C01000000000000000008C5AF
:2B20EC000200000000100000000000000001100000000000000000000000000000400002010000000000000000808261
:2B211700020000600017000000000000E00117000000000000000018C00104000078C00F00000000000000000080BCCC
:2B2142000200008005120000000000000005120000000000000000600016000000400102000000000000000000008B7E
:2B216D00020000C00114000000000000C00114000000000000000070020F00000070002F00000000000000000080E516
:2B2198000000000000120000000000000001120000000000000000000000000000400212000000000000000000089B00
:2B21C300000000800912000000000000000512000000000000000060012600000040000A00000000000000000000CEA0
:2B21EE00000000000010000000000000808110020000000000000000000000000060200602000000000000000000F427
:2B221900020000800110010000000000800130000000000000000060000600000060000600000000000000000080C643
:2B2244000A0000000020000000000000000000000000000000000000000800000000000000000000000000000000CF6E
:2B226F000000000082000000000000000040201000000000000000802000000000001008040000000000000000808B8B
:2B229A00800008000000800008800008000000800008000000000000000020000200000020000220000220000280E70A
:2B22C500800008800008800008800008800008800008000000000020000220000220000220000220000220000280E78B
:2B22F000000000000B300800000000002000800000000000000000A8002C0000000880000300000000000000000093EE
:2B231B00000000000000000000000000000000400044000000000000001000000000000000000110000100040080B7B6
:2B234600000000000000000000000000000000000000000000000000000000000000000000000000000000000080E705
:2B237100000000000000000000000000000000000000000000000000000000000000000000000000000000000080E7DA
:2B239C00000000000A20080000000000200080400044000000000088003800000008800002000110000100040000B5AB
:2B23C7000000000001100000000000000003300000000000000000000000000000A0000800000000000000000080C5BA
:2B23F200000000800008000000000000800040000000000000000000200002000000200102000000000000000000BA79
:2B241D000000000000011000000000000010011800000000000000004000040000004C000200000000000000008082C6
:2B244800000000000000000000000000004000000000000000000000000000000000002000000000000000000080E1A8
:2B2473000000000000000000000000000000000000000000000000000000000000001000040000000000000000C0F377
:2B249E00000000000000000000000000400010040000000000000000000000000000000000000000000000000080B28D
:2B24C900000000000000000000000000000000000000000000000000000000000000000000000000000000000080E781
:2B24F400000000000000000000000000000000000000000000000000000000000000000000000000000000000080E756
:2B251F00000000000000000000000000000000000000000000000000000000000000000000000000000000000080E72A
:2B254A000000000000000000000000000022000200000000000000000000000000000880000000000000000000C08179
:2B257500000000000000000000000000404000000000000000000000000000000000000000000000000000000080A398
:2B25A000000000000000000000000000000008000000000000000000000000000000100004000000000000000000BF35
:2B25CB00000000000008000000000000000000000000000000000000000200000000002000000000000000000000CFEC
:2B25F600000000000000000000000000000000000000000000000000022000000000020000000000000000000080E531
:2B262100000000000010000000000000000000000000000000000000000000000000000000000000000000000080F608
:2B264C000000000000000000000000000000000000000000000000000000000000000000000000000000000000A0C5FE
:2B267700000000000000000000000000000000004000040000000000000000100000000000000000000000000080F76D
:2B26A200000000000000000000000000000000000000000000000000000000000800000000000000000000000000E71E
:2B26CD00000000000000000000000000000000000000000000000000000000000000000000000000000000000080E77B
:2B26F800000000000000000000000000000000000000000000000000000000000000000000000000000000000080E750
:2B272300000000000000000000000000000000000000000000000000000000000000000000000000000000000080E724
:2B274E00000000000000000000000000000000000000000000000000000000000000000000000000000000000080E7F9
:2B277900000000000000000000000000000000000000000000000000000800000000000000000000000000000000E746
:2B27A4000000000000000000000000000000000000000000000000000000000000000000200002200002200002A0C53F
:2B27CF00000000000000000000000000000000000000000000000000000000000000000000000000000000000080E778
:2B27FA00000000000000000000000000000000000000000000000000000000000000000000000000000000000080E74D
:2B282500000000000220000220000000000000000000000000000000001080000800000800000000000000000000E6BE
:2B285000000000000000000000000000000000000000000000000000000000000000000040000440000440000480E72A
:2B287B00000000000000000002000000000000000000000000000000000000000000020000000C00000000803480CE20
:2B28A600020000000000000000000000000000000000000000000000000000000000000000000000000000008208C7B4
:2B28D100000000000000000000000000000000000000000000000000000000000000000000000000000000000080E775
:2B28FC00000000000000000000000000000000000000000000000000000000000000000000000400000000000480E742
:2B2927000000000000000000020000000000000000000000000000000000000000000A0000000C00000000803480C673
:2B295200000000000000000000000000000000000000000000000000000000000000000000000000000000000080E7F3
:2B297D00020000000000000221100000000000000000000000000000000000000000000000000000000000000008ED05
:2B29A800800008800008000000800008800008800008000000000020000220000220000220000220000220000280E729
:2B29D300800008800008800008800008800008800008000000000020000220000220000220000220000220000280E776
:2B29FE00000000000000000100000000000000000000000000000000000000000000000000000000000000000080F637
:2B2A29000200000000006001000000000000000000000000000000000000000000000000000000000000000000089C7B
:2B2A5400000000000000200100000000000000000000000000000000000000000000000000000000000000000008DE50
:2B2A7F00000000000000400100000000000000000000000000000000000000000000000000000000000000000080B6B5
:2B2AAA00000000000000200100000000000000000000000000000000000000000000000000000000000000000008DEFA
:2B2AD500000000000000200100000000000000000000000000000000000000000000000000000000000000000008DECF
:2B2B0000020000000000000100000000000000000000000000000000000000000000000000000000000000000008FCA3
:2B2B2B00000000000000000101000000000000000000000000000000000000000000000000000000000000000080E617
:2B2B560000000000000000010800000000000000000000000000000000000000000000860000000000000000088090AD
:2B2B810000000000000060014600000000000000001E100000000000000000000000800900000000000000800180DBEF
:2B2BAC00020000000000200150000000000000000018000000000000000000000000000604000000000000000808B6A3
:2B2BD70000000000000040012400000000000000003C080000000000000000000000000100000000000000000D80E3B9
:2B2C0200000000000000200100000000000000000018080000000000000000000000000000000000000000004000C363
:2B2C2D00000000000000200108100000000000000018000000000000000000000000008000000000000000000800DFC4
:2B2C58000000000000000001000000000000000000180000000000000000000000000006000000000000000040008D65
:2B2C830002000000000000211002000000000000001800000000000000000000000000060000000000000000008892B9
:2B2CAE00000000000000800810000000000000000000010000000000000000000000000000000000000000000080FFE3
:2B2CD900000000000000600216000000000000000026000000000000000000000000000000000000000000000080961C
:2B2D0400000000000000000112000000000000000000000000000000000000000000000000000000000000000080C74A
:2B2D2F00020000000000400A140000000000000000040100000000000000000000000000000000000000000000889FED
:2B2D5A00000000000000000012000000000000000010080000000000000000000000000000000000000000000080CFD5
:2B2D8500000000000000800013000000000000000030000000000000000000000000000000000000000000000000FD63
:2B2DB000000000000000000030000000000000000010000000000000000000000000000000000000000000000080C573
:2B2DDB000000000000000021140000000000000000200800000000000000000000000000000000000000000000808F61
:2B2E0600020000000148000180000000000000000010020000000000000420000200000080000000000080000888F617
:2B2E310000000060010660010600000000000000000600000000000080051881110000001800000000001880058087B7
:2B2E5C00000000200150200138000000000000000010000000000000800440011400000080000000000080000800D4BC
:2B2E8700000000400124400124000000000000000014010000000000000590000100000090000000000090000980F30F
:2B2EB2000200002001002001200000000000000000100800000000008004000000000000000400000000000440889E87
:2B2EDD0002000020010830010000000000000000002000000000000080042040020400008000000000008000080093C9
:2B2F0800040000000100000300000000000000000010010000000000000C00000000000040040000000000044000D51C
:2B2F3300020000002110020118000000000000000020000000000000000440088400000000000000000040000000CF26
:2B2F5E00020000000110000110000000000000000010010000000000000440000400000000000000000000000080B19A
:2B2F890002000060011660011600000000000000003E000000000000800558800500000000000000000000000008EB9A
:2B2FB400000000200112200112000000000000000018000000000000800448800400000000000000000000000080B2F2
:2B2FDF0000000040011440011400000000000000003C010000000000000550000500000000000000000000000000C8BE
:2B300A00000000200112200112000000000000000018000000000000800448800400000000000000000000000080B29B
:2B303500020000200112200112000000000000000058000000000000800448800400000000000000000000000008FC5C
:2B3060000000000003100001300000000000000000180000000000000004C0000400000000000000000000000008B267
:2B308B000000000001105001110000000000000000B80000000000000004440084000000000000000000000000809013
:2B30B600000000000110000110000000000000000000020000000060100440000400000000000000000000000888DFA4
:2B30E10000000060011660011600000000000000001E000000000098800558800500000000000000000000800188CBEA
:2B310C00020000200112200112000000000000000018000000000000880448800400000000000000000000000888B080
:2B31370000000040011440011400000000000000001C010000000090000550000500000000000000000000000900EAC9
:2B3162000000002001122001120000000000000000180800000000E0800448800400000000000000000000004000D874
:2B318D00000000200112200112000000000000000038000000000000800448800400000000000000000000000C00D449
:2B31B800020000000130000110000000000000000018000000000060000440000400000000000000000000004088F030
:2B31E300000000000111402110100000000000000018000000000060008C40400404000000000000000000000080968C
:2B320E00000000800010000010000000000000000018000000000000000040000400000000000000000000000080F623
:2B32390000000060041660081600000000000000003E010000000000802158800500000000000000000000000000E2D3
:2B3264000000000001128009120000000000000000180000000000000006488004000000000000000000000000009017
:2B328F0002000040081440001400000000000000001C100000000000001950000500000000000000000000000088B48C
:2B32BA00000000000012000212000000000000000098000000000000000848800400000000000000000000000000DC7B
:2B32E500000000800013000012000000000000000018000000000000000048800400000000000000000000000080E6CF
:2B331000000000000010000010000000000000000000000000000000000040000C00000000000000000000000000E73F
:2B333B00020000002110820110020000000000000018000000000000000640080400000000000000000000000008909D
:2B336600000000000400800440000000000000801108000000000000001200011060200000000880000C00000008920A
:2B339100000000600046600006000000000000E0039E0000000000008001188009180000008001188001000000009898
:2B33BC00000000800518000118000000000000800108000000000000000460000600080000000C80000800000008BADF
:2B33E7000000004002844004A4000000000000C0832C080000000000001110022190000000000990000900000008AA6E
:2B341200020000000220000020000000000000800108000000000000000080000860000000004040044000000008F816
:2B343D00000000000000800001000000000000801338010000000000000204000000400000000880000800000080DDE4
:2B34680000000000000000000000000000000080010800000000000000000000006000000000400004400000008094B8
:2B349300000000800118002118000000000000800019100000000000008C60000660000000000000000000000080D6EB
:2B34BE00000000000001000000080000000000000000000000000000000000008000000000000000000000000080F7E3
:2B34E900000000000200011220000000000000000000000000000000008080200000000000000000000000000000ED76
:2B351400800008000000000000800008800008800008000000000020000000000020000220000220000220000280C57F
:2B353F00800008800008800008800008800008800008000000000020000220000220000220000220000220000280E7FE
:2B356A000000000000322002020000000000004040450000000000000210000015080000000001100001000C0000C40A
:2B359500000000000000000000000000000000000010000000000000000400000000000000000000000000000080B2C5
:2B35C000000000000000000000000000000000000000000000000000000000000000000000000000000000000080E779
:2B35EB00000000000000000000000000000000800008000000000000000000000000000000000220000200080080CDB4
:2B361600000000000022200202000000000000400055000000000000021400001108000000000110000100040000C8A1
:2B364100000000400005500005100000000000800008000000000010000114400104400000000000000000000080E71B
:2B366C00000000000000000004000000000000800008000000000000000000000000000014000110000110000180E709
:2B369700000000000000008000080000000000000000000000000000000000000000000000000000000000000080E719
:2B36C200000000008000000000040000000000000000000000000000020000000000000000000000000000000080E9EE
:2B36ED00100000000000000000000000000000000010000000000000000000000000000010000110000110000180E6F9
:2B371800000000000000000000000000000000000000020000000000000000000000000000000000000000000028CF8D
:2B374300000000000000000000000000000000000000000000000000000000000000000000000000000000000080E7F4
:2B376E00000000000000000000000000000000000000000000000000000000000000000000000000000000000080E7C9
:2B379900000000000000000000000000000000000000000000000000000000000000000000000000000000000080E79E
:2B37C400000000000000000000000000000000000020000000000000000000000000080000000000000000000080CD65
:2B37EF00000000000000000000000000000000000001100000000000000000000000000000000000000000000080E737
:2B381A00100000000000000000000000000000000000000000000000000000000000000000000000000000000080F7FC
:2B384500000000000000800000000000000000000000000000000000000000000000000000000000000000000000EFE9
:2B387000000000000000000000000000000000000000040000000000010000000000011000000000000000000080E2B5
:2B389B00000000000000000000000000000000000000000000000000000000000000000000000000000000000080E79B
:2B38C600000000000000000000000000000000000000000000000000000000000000000000000000000000000080E770
:2B38F100000000000000000000000000000000000000000000000000000000000000000000000000000000000080E745
:2B391C00000000000000000000000000000000000000000000000000000000000000000000000000000000000080E719
:2B394700401004411004411004411004411004411004010000000010044110044110044110044110044110044180E7F2
:2B397200601886611886611886611886611886611886010000000018866118866118866118866118866118866180E7CF
:02399D00FFFF2A
:00000001FF
