:020000040000FA
:2B000000FFFF62FF2500FFFFFFFFFFFFFFFFFFFFFFFFFFFFFFFFFFFFFFFFFFFFFFFFFFFFFFFFFFFFFFFFFFFFFFFFFF76
:2B002B00601886611886611886611886611886611886010000000018866118866118866118866118866118866180E74F
:2B005600401004411004411004411004411004411004010000000010044110044110044110044110044110044180E71C
:2B008100000000000000000000000000000000000000000000000000000000000000000000000000000000000080E7ED
:2B00AC00000000000000000000000000000000000000000000000000000000000000000000000000000000000080E7C2
:2B00D700000000000000000000000000000000000000000000000000000000000000000000000000000000000080E797
:2B010200000000000000000000000000000000000000000000000000000000000000000000000000000000000080E76B
:2B012D00000000000000000000000000000000000000000000000000000000000000000000000000000000000080E740
:2B015800000000000000000000000000000000000000000000000000000000000000000000000000000000000080E715
:2B018300000000000000000000000000000000000000000000000000100000000000000000000000000000000080F7CA
:2B01AE000000000000000000000000000000000000000000000000000000000000000000000000000000000000A0C5C1
:2B01D9000A00000000000000000C0000000000000000000000000040000002000000100000000000000000000080957E
:2B020400000000000000000000000000000000000000000000000000000000000000000000000000000000000080E768
:2B022F00000000000000000000000000000000000000000000000000000000000000000000000000000000000080E73D
:2B025A00000000000000000000000000000000000000000000000000000000000000000000000000000000000008EF82
:2B028500000000000000000000000000000000000000000000000000000000000000000000000000000000000080E7E7
:2B02B0000A0000000000000000000000000200000000000000000080000001000000000000000000000000000088D737
:2B02DB00000000000000000000000000000000000000000000000000000000000000000000000000000000000080E791
:2B030600000000000000000000000000000000000000000000000000000000000000000000000000000000000080E765
:2B033100000000000000000020000000000200000000000000000080000800000000000000000000000000000080E790
:2B035C00000000000000000000000000000000000000000000000000000000000000000000000000000000000080E70F
:2B038700000000000000000200000000200000000080000000000008002000000000800800000000000080014000E256
:2B03B200020000000000000000000000000000000000000000000000000000000000000000000000000000000008ED29
:2B03DD00000000000000000000000000000000000000000000000000000000000000000000000000000000000080E78E
:2B040800000000000000000000000000000000000000000000000000000000000000000000000000000000014080E226
:2B043300000000000000000300000000200000000080000000000008002000000000800800000000000080000000F6D5
:2B045E00000000000000000000000000000000000000000000000000000000000000000000000000000000000080E70C
:2B048900020000000000000000000000000000000000000000000000000000000000000000000000000000000008ED51
:2B04B400800008800008800008800008800008800008000000000020000220000220000220000220000220000280E7BA
:2B04DF00800008800008800008800008800008800008000000000020000220000220000220000220000220000280E78F
:2B050A00000000000000000000000000000800000000000000000000020000000000000000000000000000000000E5D7
:2B053500020000000000000000000000600200000000000000000098000000000000000000000000000000000008B6E1
:2B056000020000000000000000000000001000000000000000000000400000000000000000000000000000000008AC6A
:2B058B00040000000000000000000000C00300000000000000000070000000000000000000000000000000000010FE00
:2B05B600020000000000000000000000800100000000000000000060100000000000000000000000000000000088821D
:2B05E1000200000000000000000000008011000000000000000000E000000000000000000000000000000000000893E1
:2B060C00020000000000000000000000000000000000000000000000000000000000000000000000000000000008EDCC
:2B063700000000000000000000000000800100000000000000000060000000000000000000000000000000000000981F
:2B066200000000000000000000000000000400000000000000000000020000000000000000000000000000000080A146
:2B068D000000000000000000A6000000600000000062000000000098802D00000000000000000000000000000000C5D0
:2B06B80002000000000000000010000000090000001A000000000060011400000000000000000000000000000008F76E
:2B06E30000000000000000001C0000004000000000A4000000000090000500000000000000000000000000000000D87F
:2B070E0000000000000000001800000000000000003A000000000080000200000000000000000000000000000000C725
:2B073900000000000000000018010000000101000022000000000060001600000000000000000000000000000000FDE5
:2B076400000000000000000000000000000100000000000000000060000604000000000000000000000000000080B6C9
:2B078F00020000000000000018000000002100000000000000000060000E00000000000000000000000000000008E7A7
:2B07BA00000000000000000040000000000800000000000000000000000000000000021000000000000000020000A216
:2B07E500000000000000000006000000600200000000000000000098010000000018800900000000000018000080C4EB
:2B081000000000000000000008000000800100000000000000000060080000000000000600000000000000040080FA48
:2B083B000200000000000000840000004004000000000000000000100000000000F0201900000000000070000088880F
:2B086600020000000000000000000000000200000000000000000080000000000060000800000000000060100008DF24
:2B0891000400000000000000081000008001000000000000000000600000000000E00406000000000000E0000090F7EE
:2B08BC00020000000000000008000000800100000000000000000060000000000000000600000000000000000008FC1C
:2B08E700020000000000000008020000800100000000000000000060000000000060000600000000000060000008FE2D
:2B091200020000000000000000000000000000000000000000000000001000000000000000000000000000000008ECB4
:2B093D000000000000000000A60000006009000000000000000000588209000000188211000000000000000000009161
:2B096800000000000000000018000000000100000000000000000040010600000000401600000000000000000000EBC3
:2B099300000000000000000064000000400B000000000000000000500019000000F0000100000000000000000000919F
:2B09BE000000000000000000200000008020000000000000000000200008000000601008000000000000000000889393
:2B09E9000200000000000000180000008001000000000000000000600106000000E0000600000000000000000000E417
:2B0A1400020000000000000018000000800101000000000000000060400600000000000600000000000000000080D31C
:2B0A3F000200000000000000180000008003000000000000000000E0000600000060000600000000000000000000C7DC
:2B0A6A00020000000000000040000000000400000000000000000000020002000000011000000000000000000080C7BF
:2B0A9500000000000000000026000000600200000000000000000018800900000018800100000000000000000088EFFD
:2B0AC000000000000000000018000000800100000000000000000040000402000000000002000000000000000080E7C3
:2B0AEB000000000000000000440000004006000000000000000000902001000000F0200700000000000000000080C549
:2B0B1600000000000000000020000000000200000000000000000000000000000060100601000000000000000080E7B4
:2B0B41000000000000000000180000008001000000000000000000404004040000E0000E00000000000000000008EF83
:2B0B6C00020000000000000018000000800100000000000000000040000400000000000000000000000000000008ED8A
:2B0B9700020000000000000018000000800100000000000000000040088400000060000600000000000000000090F4E2
:2B0BC200020000000000000000000000000000000000000000000000008000000000000000000000000000000008E599
:2B0BED0002000000000000004600000060040000006A000000000098C00900000018821100000000000000000088E053
:2B0C1800000000000000000000000000008000000002000000000020000200000060014000000000000000000008A4C0
:2B0C430000000000000000003C080000C001000000AC000000000090022100000010000F00000000000000000080C1C2
:2B0C6E00000000000000000018000000800100000002000000000000000000000080000601000000000000000000B188
:2B0C990000000000000000001801000080110000004A000000000020400204000060000E000000000000000000808B5D
:2B0CC400020000000000000000000000000000000028000000000020000200000060000000000000000000000088A130
:2B0CEF00000000000000000018000000800100000020000000000020088200000060000600000000000000000080C5CC
:2B0D1A00000000000000000040000000000400000000000000000000011000000000011000000000000000000080E7E1
:2B0D4500000000000000000026000000600200000000000000000098800900000098800900000000000000000080E752
:2B0D7000000000000000000000000000008000000000000000000000000004000000400002000000000000000080CF43
:2B0D9B0002000000000000003C010000C003000000000000000000700407000000F0000F00000000000000000008E8C1
:2B0DC600000000000000000018000000800100000000000000000060100600000060000600000000000000000080F716
:2B0DF1000000000000000000180100008011000000000000000000E0004E000000E0044E00000000000000000080E36A
:2B0E1C00000000000000000000000000000000000000000000000000000000000000000000000000000000000080E744
:2B0E4700000000000000000018000000800100000000000000000060000600000060000600000000000000000008EF24
:2B0E7200020000000000000000000000000000000018000000000000000000000000010000000000000000000088F5BD
:2B0E9D0002000000000000006600000060060000007A000000000098811900000098801900000000000000000010AAC5
:2B0EC800020000000000000000000000001000000022000000000000200000000060024000000000000000000008AE53
:2B0EF30002000000000000003C100000C001000000240000000000F0000F040000100007000000000000000000089BE4
:2B0F1E00000000000000000018000000800100000002000000000060100600000080000600000000000000000088B9D0
:2B0F49000000000000000000180100008011000000020000000000E0004E00000060004E00000000000000000000C72E
:2B0F740000000000000000000000000000000000000000000000000000000000006000000000000000000000008081F1
:2B0F9F00000000000000000018000000800100000000000000000060000600000060000600000000000000000080E75B
:2B0FCA001A0000000000000000000000000000000008000000000000000000000000000000000000000000000000F5E5
:2B0FF500000000000000000000000000000000000000000000000000000000000000000000000000000000000080E76A
:2B102000800008800008800008800008800008800004000000000020000220000220000220000220000220000200AFFE
:2B104B00800008800008800008800008800008800008000000000020000220000220000220000220000220000280E717
:2B107600000000000000000000000000000000000004010000000000000000000000020C00000000000000000000E05C
:2B10A100000000000000000000000000000000000000000000000000000000800000000000041010040010040000EA7E
:2B10CC00000000000000000000000000000000000000000000000000000000000000000000000000000000800000EF8A
:2B10F700000000000000000000000000000000000000000000000000000000000000000000000000000000000080E767
:2B112200000000000000000000000000000000000004010000000000000000800000020800041010040010840000A1B6
:2B114D00000000000000000014100000400101000000000000000010400304000030000300000000000000000080C542
:2B117800000000000000000000100000008000000000000000000000600006000000000000000000000000000080FFD7
:2B11A300000000000000000000000000000000000000000000000000000000000000000000000000000000000080E7BA
:2B11CE00000000000000000000000000004000000004000000000000100000000000000001000000000000000080A37E
:2B11F900000000000000000000000000000000000000000000000000000000000000000000000000000000000028CDD6
:2B122400000000000000000000000000000000000000000000000000008000000000000000000000000000000080EFB0
:2B124F00000000000000000000000000000000000000000000000000000000000000000000000000000000000080E70D
:2B127A00000000000000000000000000800100000000000000000000000000000000000600000000000040000020FE64
:2B12A500000000000000000000000000000000000000000000000000000000000000000000000000000000000080E7B7
:2B12D000000000000000000000000000000000000000000000000000000000000000000000000000000000000080E78C
:2B12FB00000000000000000000000000000000000000000000000000200000000000000000000000000000000080C761
:2B132600000000000000000000000000000000000000000000000000001000000000000000000000000000000008EE96
:2B135100000000000000000008000000000000000000000000000000000000000000000000000000000000000000EF7A
:2B137C0000000000000000000000000000200000000000000000000002000000000022A000000000000000020080CD13
:2B13A700000000000000000000800000000008000000000000000000000000000000000000000000000000000080E72C
:2B13D200000000000000000000000000000000000000000000000000000000000000000000000000000000000080E789
:2B13FD00000000000000000000000000000000000000000000000000000000000000000000000000000000000080E75E
:2B142800000000000000000000000000000000000000000000000000000000000000000000000000000000000080E732
:2B14530000000000000000000000C000000000000000000000000000000003000000000000000000000000000080DB50
:2B147E00000000000000000000000000000000000000000000000000000000000000000000000000000000000080E7DC
:2B14A900000000000000000000000000000000000000000000000000000000000000000000000000000000000080E7B1
:2B14D400000000000000000000000000000000000000000000000000000000000000000000000000000000000090F667
:2B14FF00000000000000000000000000000000000000000000000000000000000000000000000000000000000080E75B
:2B152A00000000000000000000000000000000000000000000000000000000000000000000000000000000000080E72F
:2B155500000000000000000000000000000000000000000000000000000000000000000000000000000000000080E704
:2B158000000000000000000000000000000000000000000000000000000000000000000000000000000000000008EF49
:2B15AB00000000000000000000000200000020000000000000000000000880000000000000000000000000000080E704
:2B15D600000000000000000000000000000000000000000000000000000000000000000000000000000000000080E783
:2B160100000000000000000000000000000040000000000000000000000000000000000000000000000000014080A617
:2B162C00020000000000000000000000000000000000000000000000000000000000000000000000000000008008E524
:2B165700000000000000000000000000000000000000000000000000000000000000000000000000000040000080A305
:2B168200000000000000000000000000000000000000000000000000000000000000000000000000000000000080E7D6
:2B16AD00000000000000000000000000000040000000000000000000000000000000000000000000000000014080A66B
:2B16D800000000000000000000000000000000000000000000000000000000000000000000000000000000000080E780
:2B170300020000000000000000000000000000000000000000000000000000000000000000000000000000000008EDC4
:2B172E00800008800008800008800008800008800008000000000020000220000220000220000220000220000280E72D
:2B175900800008800008800008800008800008800008000000000020000220000220000220000220000220000280E702
:2B178400000000000000000000000000000080000000000000000000000000000000000000000000000000000000E7D3
:2B17AF00000000000000000000000000000026000000000000000000000000000000000000000000000000000008AD34
:2B17DA00020000000000000000000000000000080000000000000000000000000000000000000000000000000080ED6D
:2B18050002000000000000000000000000001C000000000000000000000000000000000000000000000000000000BCDE
:2B183000020000000000000000000000000018000000000000000000000000000000000000000000000000000000FC77
:2B185B00020000000000000000000000000038010000000000000000000000000000000000000000000000000000DF48
:2B188600000000000000000000000000000000000000000000000000000000000000000000000000000000000008EF40
:2B18B100000000000000000000000000000018000000000000000000000000000000000000000000000000000000FEF6
:2B18DC00000000000000000000000000000000000000000000000000000000000000000000000000000000000080E77A
:2B190700000000000000000000600A00000086000000000000000000802900000000000000000000000000804100C398
:2B193200020000000000000000000001000050000000000000000000000004000000000000000000000000000409BC6A
:2B195D00000000000000000000C0010000000400000000000000000000070000000000000000000000000000090890F2
:2B198800000000000000000000800100000000000000000000000000000602000000000000000000000000004010ADAE
:2B19B300000000000000000000801300000010100000000000000000000600000000000000000000000000000808B28E
:2B19DE00000000000000000000000000000010000000000000000000000000000000000000000000000000004008FA8C
:2B1A0900020000000000000000800100000010020000000000000000000600000000000000000000000000000088810E
:2B1A3400000000000000000000000800000080000000000000000000002000002000000000000000000040000080A35C
:2B1A5F00000000000000000000600000000016000000000000000000800100800100000000000000000018040000EBDD
:2B1A8A0000000000000000000000000100001000000000000000000000000400000200000000000000000010008096F4
:2B1AB500000000000000000000C003000000B4000000000000000000000F00000700000000000000000090000008F6EB
:2B1AE000020000000000000000800100000008080000000000000000000602000600000000000000000000040080D8DE
:2B1B0B00020000000000000000801300000038000000000000000000000600004E00000000000000000080000080E0AE
:2B1B3600020000000000000000000000000018100000000000000000000000000000000000000000000000040000E86E
:2B1B6100020000000000000000800100000038000000000000000000000600000600000000000000000000000080C74B
:2B1B8C00000000000000000000000000000040000000000000000000000000010000000000000000000000000008AA3B
:2B1BB700000000000000000000600800000026000000000000000000802118802100000000000000000000000080DCBF
:2B1BE2000000000000000000000000000000180000000000000000000000400000020000000000000000000000009AE4
:2B1C0D00000000000000000000C08300000044000000000000000000000F12400700000000000000000000000080E15C
:2B1C3800020000000000000000800100000020000000000000000000000602100600000000000000000000000088E652
:2B1C6300000000000000000000801300000018000000000000000000000640000E02000000000000000000000088A825
:2B1C8E00000000000000000000000000000018000000000000000000000040000000000000000000000000000010AB18
:2B1CB900000000000000000000800100000018000000000000000000000640080600000000000000000000000008A368
:2B1CE400000000000000000000000400000000000000000000000000002000001000000000000000000000000008A8F1
:2B1D0F0002000000000000000060000000006600000000000000000080019881010000000000000000000000000893AB
:2B1D3A00000000000000000000000000000098000000000000000000000660010004000000000000000000000080BF3C
:2B1D6500000000000000000000C003010000240000000000000000000021900007000000000000000000000000809B98
:2B1D9000000000000000000000800100000020000000000000000000000880000600000000000000000000000000BA3F
:2B1DBB00000000000000000000801300000018000000000000000000000660004E00000000000000000000000088AE68
:2B1DE600020000000000000000000000000018000000000000000000000660000000000000000000000000000000FC56
:2B1E1100020000000000000000800100000018000000000000000000000660000600000000000000000000000080839C
:2B1E3C00020000000000000000000800000000000000000000000000000000000000000000000000000000000000E58C
:2B1E6700020000000000000000600000000046000000000000000000802958811100000058040018040000804100A735
:2B1E9200000000000000000000800100000020000000000000000000001640000004000000100000100000000089A7DA
:2B1EBD0000000000000000000040080000003C0000000000000000000009500207000000900000D0000000000980B873
:2B1EE8000000000000000000000002000000180000000000000000000008200006000000000400000400000040809C23
:2B1F13000000000000000000008001000000380100000000000000000006E0400E02000080000080000000000800C2E9
:2B1F3E00020000000000000000800100000000000000000000000000000660400000000000040000040000004400FC07
:2B1F69000000000000000000008001000000180000000000000000000006E000060000000000000000000000008889B7
:2B1F9400000000000000000000000000000040000000000000000000001000010000000000000000000000000008AB1E
:2B1FBF00000000000000000000600A00000026000000000000000000800998801100000000804100000000000088EA82
:2B1FEA00000000000000000000800500000000000000000000000000000080000600000000000001000000000008C4F4
:2B20150002000000000000000040000000001C080000000000000000000FF4002100000000000900000000000080B6D7
:2B204000000000000000000000000200000018000000000000000000000662000800000000004000000000000080F833
:2B206B000000000000000000008001000000380100000000000000000006E0200600000000000C00000000000080C632
:2B2096000000000000000000008001000000000000000000000000000000000006000000000040000000000000009CBC
:2B20C10000000000000000000080010000001800000000000000000000066000060000000000000000000000008081EE
:2B20EC00020000000000000000000000000000000000000000000000001000001000000000000000000000000008EDB2
:2B211700020000000000000000600400000066000000000000000000800198810100000000000000804100804108D7D5
:2B214200020000000000000000800400000000100000000000000000000200202600000000000000000001000089D733
:2B216D0002000000000000000040020000001C0000000000000000000011F0000100000000000000000900000908A02B
:2B219800000000000000000000000000000018000000000000000000000060000800000000000000004000004480DCBC
:2B21C3000000000000000000008000010000380100000000000000000002E42006000000000000000008000008008794
:2B21EE00000000000000000000800000000000000000000000000000000200000600000000000000004000004000AB13
:2B2219000A000000000000000080200000001800000000000000000000826000060000000000000000040000008090DC
:2B2244000A0000000000000000000000000000000000000000000000000000000000000000000000000000000090FCD9
:2B226F00000000000000000000000000000000000000000000000000000000000000000000000000000000000080E7DD
:2B229A00800008800008800008800008800008800008000000000020000220000220000220000220000220000280E7B6
:2B22C500800008800008800008800008800008800008000000000020000220000220000220000220000220000280E78B
:2B22F0000000000000000000000000300000000000000000000000008000000008030000000410300400300C0080E123
:2B231B00000000000000000000000000000000000000000000000000000000000000000000000000000000000080E730
:2B234600000000000000000000000000000000000000000000000000000000000000000000000400000000800000AB3D
:2B237100000000000000000000000000000000000000000000000000000000000200000000080020080020080080CD9A
:2B239C00000000000000000000000020000000000000000000000000800000000802000000041010040010840000E0D0
:2B23C700000000000000000000400001000004100000000000000000000114000300000040000440000440000480949E
:2B23F2000000000000000000000000010000000800000000000000000000042400000000600006600006600006809B42
:2B241D00000000000000000000000000000000020000000000000000000000100001000000000000000000000080E51C
:2B244800000000000000000000000000000000000000000000000000008000100000000000000000000000000080FF5A
:2B2473000000000000000000000000000000000000000000000000000000002000000000000000000000000000C083DB
:2B249E00000000000000000000000000000000000000000000000000000000000000000000000000000000000080E7AC
:2B24C900000000000000000000000000000000000000000000000000000000000000000000000000000000000080E781
:2B24F400000000000000000000000000000004100000000000000000000010000004000000000000000000000080E62F
:2B251F00000000000000000000000000000000000000000000000000000000000000000000000000000000000080E72A
:2B254A00000000000000000000000000000000000000000000000000000000000000000000000000000000000080E7FF
:2B257500000000000000000000000000000000000000000000000000000000400000000000000000000000000080A7D4
:2B25A000000000000000000000000000000000040000000000000000000000000000000000000000000000000080E3A9
:2B25CB000000000000000000000000000000000000000000000000000000000000000000000000000000000000C0A382
:2B25F600000000000000000000008000000000020000000000000000000002008000000000022000022000022080C50B
:2B262100000000000000000000000000000000000000000000000000000000000000000000000000000000000080E727
:2B264C00000000000000000000000000000000000000000000000000000000000000000000000000000000000080E7FC
:2B267700000000000000000000000000000000000000000000000000000000000000000000000000000000000080E7D1
:2B26A200000000000000000000000000000000000200000000000000000000000000000000000000000000000008CD36
:2B26CD000000000000000000000000000C0000000000000000000000000000000800200400000000000000000020ADDD
:2B26F800000000000000000000000000000000000000000000000000000000000000000000000000000000000080E750
:2B272300020000000000000000000000000000000000000000000000000000000000000000000000000000000080E524
:2B274E00000000000000000000000000000000000000000000000000000000000000000000000000000000000080E7F9
:2B277900000000000000000000000000000000000000000000000000000000000000000000000000000000000080E7CE
:2B27A4000000000000000000000000000000000000000000000000000000000000000000000000000000000000A0C5A5
:2B27CF00000000000000000000000000000000000000000000000000000000000000000000000000000000000080E778
:2B27FA00000000000000000000000000000000000000000000000000000000000000000000000000000000000080E74D
:2B282500000000000000000000000020000000000200000000000000000800000080000800000000000000000000E7EF
:2B285000000000000000000000000000000000000000000000000000000000000000000000000000000000000080E7F6
:2B287B00000000000000000000000020000000200000000000000000000000000000802000000000000000014000EA27
:2B28A600020000000000000000000000000000000000000000000000000000000000000000000000000000000008ED10
:2B28D100000000000000000000000000000000000000000000000000000000000000000000000000000000000080E775
:2B28FC00000000000000000000000000000000000000000000000000000000000000000000000000000000014080E20E
:2B29270000000000000000000000002000000020000000000000000000000000000080A000000000000000000000E73E
:2B295200000000000000000000000000000000000000000000000000000000000000000000000000000000000080E7F3
:2B297D00020000000000000000000000000000000000000000000000000000000000000000000000000000000008ED38
:2B29A800800008800008800008800008800008800008000000000020000220000220000220000220000220000280E7A1
:2B29D300800008800008800008800008800008800008000000000020000220000220000220000220000220000280E776
:2B29FE00000000000000000000000000000000000400000000000000000000002000020000000000000000000080A365
:2B2A2900020000000000000000000000000000600200000000000000000000800998000000000000000000000008AF46
:2B2A5400000000000000000000000000000000800100000000000000000000000000400000000000000000000088B658
:2B2A7F00000000000000000000000000000000400600000000000000000000008770000000000000000000000090D887
:2B2AAA00000000000000000000000000000000000200000000000000000000000660100000000000000000000008DDA4
:2B2AD5000000000000000000000000000000008001000000000000000000000046E0000000000000000000000008F235
:2B2B0000020000000000000000000000000000800100000000000000000000000000000000000000000000000088F4AB
:2B2B2B00000000000000000000000000000000800100000000000000000000000660000000000000000000000000FE9A
:2B2B5600000000000000000000000040000000000000000000000000000000000000010000000000000000000080A2F1
:2B2B8100000000000000000000000006000000600400000000000000802900802918000000000000000000000000BA9B
:2B2BAC00020000000000000000000018000000800500000000000000000002000042200000000000000000000008CD26
:2B2BD7000000000000000000000000640000004000000000000000000007000007100000000000000000000000809001
:2B2C0200000000000000000000000020000000000200000000000000000600000601100000000000000000000080E701
:2B2C2D00000000000000000000000018000000800100000000000000004600000E40000000000000000000000000A7A8
:2B2C5800000000000000000000000018000000800100000000000000000000000040000000000000000000000080A355
:2B2C8300020000000000000000000018000000800100000000000000000600000640080000000000000000000008A18E
:2B2CAE00000000000000000000000000000000000800000000000000002000002000020000000000000000000000E5CC
:2B2CD9000000000000000000000000860000006002000000000000008001008001580000000000000000000000809876
:2B2D0400000000000000000000000008000000000100000000000000004000000040000000000000000000000000BE5D
:2B2D2F000200000000000000000000A4000000400A00000000000000000F000087D0020000000000000000000008B267
:2B2D5A00020000000000000000000000000000000000000000000000000600000621000000000000000000000008DF38
:2B2D8500040000000000000000000008100000000101000000000000004600000E600200000000000000000000908B34
:2B2DB000020000000000000000000008000000000100000000000000000000000060400000000000000000000088D2F3
:2B2DDB000200000000000000000000080200000021000000000000000006000006E0000000000000000000000008921A
:2B2E0600020000000000000000000040000000000000000000000000002000000000000000000000000000000008AB8C
:2B2E3100000000000000000000000026000000600900000000000000800100802118C02500000000000000000000D0F8
:2B2E5C00000000000000000000000018000000000900000000000000000600000020000400000000000000000080EF91
:2B2E8700000000000000000000000044000000400100000000000000002900004F10010D04000000000000000000D72A
:2B2EB200000000000000000000000020000000802000000000000000000800000600101200000000000000000008926B
:2B2EDD00020000000000000000000018000000800100000000000000000600004620000E00000000000000000000A510
:2B2F080002000000000000000000001800000080010100000000000000060000002000060400000000000000008097BB
:2B2F3300020000000000000000000018000000800300000000000000000600000620080E000000000000000000008B09
:2B2F5E00020000000000000000000040000000000400000000000000000000001000201000000000000000000080C57D
:2B2F8900000000000000000000000006000000600000000000000000801100800198800100000000000000000088EE16
:2B2FB400000000000000000000000000100000008000000000000000001600000060000004000000000000000080BEAA
:2B2FDF0000000000000000000000001C000000C00100000000000000000900004F90010700000000000000000000E218
:2B300A00000000000000000000000038000000800300000000000000000800000681000600000000000000000080F7D4
:2B303500000000000000000000000038000000800300000000000000000600000E60008E00000000000000000008E7C4
:2B306000020000000000000000000000000000000000000000000000000600000060000000000000000000000080E578
:2B308B00020000000000000000000018000000800100000000000000000600000660000600000000000000000080E5A8
:2B30B600020000000000000000000000000000000000000000000000000000000000020000000000000000000080E784
:2B30E100020000000000000000000046000000600400000000000000801100802198801100000000000000000000E7D6
:2B310C00000000000000000000000000000000001000000000000000000002002660010000000000000000000008CD2A
:2B31370000000000000000000000003C080000C00300000000000000000F00000990004700000000000000000000EB8C
:2B316200000000000000000000000038000000800300000000000000000600000880000600000000000000000080E78C
:2B318D00000000000000000000000038000000800300000000000000004600000660008E00000000000000000000EB37
:2B31B800020000000000000000000000000000000000000000000000000000000660000000000000000000000008ED8F
:2B31E300000000000000000000000018000000800100000000000000000600000660000600000000000000000080E74F
:2B320E00000000000000000000000040000000000400000000000000001000001000010000000000000000000080E6CA
:2B323900000000000000000000000026000000600200000000000000800900800198801900000000000000000000E6C1
:2B32640000000000000000000000000000000000800000000000000000400000260000800000000000000000008087D2
:2B328F0002000000000000000000003C010000C003000000000000000007000001F04003000000000000000000888EC1
:2B32BA00000000000000000000000038000000800300000000000000000600000860100200000000000000000000D5D9
:2B32E5000000000000000000000000380000008003000000000000000046000006E0000004000000000000000000C50E
:2B331000000000000000000000000000000000000000000000000000000000000600000200000000000000000080A367
:2B333B00000000000000000000000018000000800100000000000000000600000660008200000000000000000008A335
:2B336600020000000000000000000000000000000000000000000000001000000000001000000000000000000080E5B5
:2B33910002000000000000000000006600000060060000000000009881019881099A810100000000000000000080C4A7
:2B33BC00020000000000000000000000000000001000000000000000040400200600040600000000000000000080809C
:2B33E70002000000000000000000003C100000C001000000000000F00021F0002970001100000000000000000000B051
:2B34120000000000000000000000003800000080030000000000006010006010086010080000000000000000000899D3
:2B343D000000000000000000000000380000008003000000000000E00004E40006E00006000000000000000000008570
:2B346800000000000000000000000000000000000000000000000000000400000600000600000000000000000080A306
:2B349300000000000000000000000018000000800100000000000060008460000660000600000000000000000080CD78
:2B34BE001A0000000000000000000000000000000000000000000000000000000000000000000000000000000080FD4C
:2B34E900000000000000000000000000000000000000000000000000000000000000000000000000000000000080E751
:2B351400800008800008800008800008800008800008000000000020000220000220000220000220000220000280E729
:2B353F00800008800008800008800008800008800008000000000020000220000220000220000220000220000280E7FE
:2B356A000000000000000000000000000000000000000000000000088000088A0800000000000000000000000000ED27
:2B359500000000000000000000000000000000000000000000000000000000000000000000041010040010040080E26D
:2B35C000000000000000000000000000000000000000000000000000000000000000000000000000000000000080E779
:2B35EB00000000000000000000000000000000000000000000000000000000000000000000000000000000000080E74E
:2B361600000000000000000000000000000000000000000000000008800008820800000000041010040010040000E053
:2B364100000000000000000000000004100000400001000000000000000504000510001104000000000000000080E670
:2B366C00000000000000000000000000100000008000000000000000000000000000640006000000000000000080FBBE
:2B369700000000000000000000000000000000000000000000000000000000000000000000000000000000000080E7A1
:2B36C200000000000000000000000004000000404000000000000000000001100000000000000000000000000080E3E5
:2B36ED00000000000000000000000000000000000000000000000000000000000001000002000000000000000080D758
:2B371800000000000000000000000000000000000000000000000000000000000000180800000000000000000000FF67
:2B374300000000000000000000000000000000000000000000000000000000000000000000000000000000000080E7F4
:2B376E00000000000000000000000000000000800100000000000020000600000040000000000000000000000000FE4B
:2B379900000000000000000000000000000000000000000000000000000000000000000000000000000000000080E79E
:2B37C400000000000000000000000000000000000000000000000000000000000000000000000000000000000080E773
:2B37EF00000000000000000000000000000000000000000000000000000000000000400000000000000000000080A748
:2B381A00000000000000000000000000000000000000000000000000000000000000000000000000000000000080E71C
:2B384500000000000000000000000008000000000000000000000000000000000200000000000000000000000000CD81
:2B38700000000000000000000000000000000000200000000000000002800002A000020000000000000000000080E582
:2B389B00000000000000000000000000000000000000000000000000000000000000000000000000000000000080E79B
:2B38C600000000000000000000000000000000000000000000000000000000000000000000000000000000000080E770
:2B38F100000000000000000000000000000000000000000000000000000000000000000000000000000000000080E745
:2B391C00000000000000000000000000000000000000000000000000000000000000000000000000000000000080E719
:2B394700401004411004411004411004411004411004010000000010044110044110044110044110044110844200DCFC
:2B3972006018866118866118866118866118866118860100000000188661188661188661188661188661180677008818
:02399D00FFFF2A
:00000001FF
