:020000040000FA
:2B000000FFFF62FF2500FFFFFFFFFFFFFFFFFFFFFFFFFFFFFFFFFFFFFFFFFFFFFFFFFFFFFFFFFFFFFFFFFFFFFFFFFF76
:2B002B00601886611886611886611886611886611886010000000018866118866118866118866118866118866180E74F
:2B005600401004411004411004411004411004411004010000000010044110044110044110044110044110044180E71C
:2B008100000000000000000000000000000000000000000000000000000000000000000000000000000000000080E7ED
:2B00AC00000000000000000000000000000000000000000000000000000000000000000000000000000000000080E7C2
:2B00D700000000000000000000000000000000000000000000000000000000000000000000000000000000000080E797
:2B010200000000000000000000000000000000000000000000000000000000000000000000000000000000000080E76B
:2B012D00000000000000000000000000000100000000000000000000000040000000000000000000000000000080B234
:2B015800020000000000000000000000000000000000000000000000000000000000000000000000000000000080E515
:2B018300000000000000000000000000000000000000000000000000000000000000000000000000000000000080E7EA
:2B01AE00000000000000000000000000000000000000000000000000000000000000000000000000000000000080E7BF
:2B01D9000000000000000000000000000000000000000000000000000000000000000000000000000000000000A0C596
:2B020400000000000000000000000000000000000000000000000000000000000000000000000000000000000080E768
:2B022F00000000000000000000000000000000000000000000000000000000000000000000000000000000000008EFAD
:2B025A00000000000000000000000000000000000000000000000000000000000000000000000000000000000080E712
:2B028500000000000000000000000000000000000000000000000000000000000000000000000000000000000080E7E7
:2B02B0000200000000000000000000000000000000000000000000000000000000000000000000000000000000A0C7BA
:2B02DB00000000000000000000000000000000000000000000000000000000000000000000000000000000000080E791
:2B030600000000000000000000000000000000010000000000000000000020000000000000000000000000000080C467
:2B033100000000000000000000000000000020000000000000000000000000000000000000000000000080000000C53C
:2B035C00000000000000000000000000000000000000000000000000000000000000000000000000000000000080E70F
:2B038700000000000000000000000000000002000000000000000000000000000000000000000000001008003000CD34
:2B03B200020000000000000000000000000000000000000000000000000000000000000000000000000000000008ED29
:2B03DD00000000000000000000000000000000000000000000000000000000000000000000000000000000000080E78E
:2B040800000000000000000000000000000000000000000000000000000000000000000000000000001000001080E742
:2B04330000000000000000000000000000000200000000000000000000000000000000000000000000000800A000C52F
:2B045E00000001000000000000000000000008000000000000000000040000040000400000000000000000000000BF63
:2B04890002002008000000000000000000100000000000000000000000088400008000000000000000000000008886F4
:2B04B400000000800008800008800008000000800008000000000000000000000200000220000220000220000280E72C
:2B04DF00800008800008800008800008800008800008000000000020000220000220000220000220000220000280E78F
:2B050A00000000000000000000000000000000000000000000000000000000000000000000000000000000000080E75F
:2B053500020000000000000000000000000000000000000000000000000000000000000000000000000000000008EDA4
:2B056000000000000000000000000000000000000000000000000000000000000000000000000000000000000008EF79
:2B058B00000000000000000000000000000000000000000000000000000000000000000000000000000000000090F6BF
:2B05B600000000000000000000000000000000000000000000000000000000000000000000000000000000000008EF23
:2B05E100000000000000000000000000000000000000000000000000000000000000000000000000000000000008EFF8
:2B060C00020000000000000000000000000000000000000000000000000000000000000000000000000000000008EDCC
:2B063700000000000000000000000000000000000000000000000000000000000000000000000000000000000080E731
:2B066200000000000000000000000000000020000000000000000000000000000000000000000000000000000080C508
:2B068D0000000000000000000000000000001E0000000000000000000000000000000000000000000000000000009E86
:2B06B800020000000000000000000000000000000000000000000000000000000000000000000000000000000008ED20
:2B06E30000000000000000000000000000003C0800000000000000000000000000000000000000000000000000009414
:2B070E00000000000000000000000000000000010000000000000000000000000000000000000000000000000080E659
:2B073900000000000000000000000000000020000000000000000000000000000000000000000000000000000080C530
:2B076400000000000000000000000000000018000000000000000000000000000000000000000000000000000000FE54
:2B078F00020000000000000000000000000018000000000000000000000000000000000000000000000000000088F4A9
:2B07BA00000000000000000000000000000020000000000000000040000440000040000000000000000000010080C4EB
:2B07E50000000000000000000000000000001E000000000000000058800558000058000000000000000098000000871F
:2B081000000000000000000000000000000000000000000000000048800448000048000000000000000088000080EF6A
:2B083B0002000000000000000000000000001C040000000000000050000550000050000000000000000050000088E5BE
:2B0866000200000000000000000000000000000000000000000000488004480000480000000000000000680000888396
:2B089100040000000000000000000000000060000000000000000048800448000048000000000000000068400010BA0A
:2B08BC000200000000000000000000000000180000000000000000C0000CC00000C00000000000000000600000889231
:2B08E7000200000000000000000000000000180000000000000000D0000DD00000C00000000000000000600800888BE4
:2B091200020000000000000000000000000040000000000000000040000440000040000000000000000000000008A903
:2B093D00000000000000000000000000000026000000000000000058800558000058000000000000000098010080BD06
:2B0968000000000000000000000000000000420000000000000000488004480000480000000000000000080000008B33
:2B0993000000000000000000000000000000140000000000000000500005500000500000000000000000D0400000A37D
:2B09BE0000000000000000000000000000001A000000000000000048800448000048000000000000000068000008B870
:2B09E90002000000000000000000000000005A0000000000000000488004480000480000000000000000E8200000D64D
:2B0A14000200000000000000000000000000180000000000000000400004C00000400000000000000000600000809ADF
:2B0A3F0002000000000000000000000000001C0200000000000000500444C0000040040000000000000060080080C523
:2B0A6A00020000000000000000000000000038000000000000000040000440000040000000000000000000000000DE85
:2B0A950000000000000000000000000000001E000000000000000058800558000058000000000000000000000088966D
:2B0AC000000000000000000000000000000000000000000000000048800448000048000000000000000000000080E748
:2B0AEB0000000000000000000000000000001C100000000000000050000550000050000000000000000000000000AE11
:2B0B1600000000000000000000000000000018000000000000000048800448000048000000000000000000000000FE42
:2B0B4100000000000000000000000000000038100000000000000048800448000048000000000000000000000088C499
:2B0B6C000200000000000000000000000000101000000000000000400004400000C0000000000000000000000000E414
:2B0B97000200000000000000000000000000100000000000000000400445C00800D0000000000000000000000080FC84
:2B0BC200020000000000000000000010000020000000000000000040000E40000040000000000000000000000000F414
:2B0BED0002000000000000000000001600001E000000000000000058800758000058000000000000000000000000CF49
:2B0C18000000000000000000000000120000180000000000000000480000480000480000000000000000000000088B1C
:2B0C430000000000000000000000001400001C1000000000000000500007540000500000000000000000000000009DAE
:2B0C6E00000000000000000000000012000010020000000000000048001648000048000000000000000000000000EE5B
:2B0C9900000000000000000000000012000030000000000000000048000648000048000000000000000000000000CF41
:2B0CC4000200000000000000000000100400180800000000000000C0000440000040000000000000000000000008E99A
:2B0CEF000000000000000000000000300000380000000000000000C00024D0080050040000000000000000000000E181
:2B0D1A00000110000000000000000000000100000000000000000080000480000080000000000000000000040000B65E
:2B0D45006001160000000000000000006001A6000000000000000078800578000078000000000000000098000000EF91
:2B0D7000200112000000000000000000200188000000000000000060800400010000000000000000000000400000B5A2
:2B0D9B00420114000000000000000000400104000000000000000070400570000070020000000000000030000008AF13
:2B0DC600200112000000000000000000200100000000000000000040800400000000000000000000000020100000ECCE
:2B0DF100200112000000000000000000200108100000000000000040820400010000010000000000000000000080C45F
:2B0E1C00004110040000000000000000004108000000000000000060010C60000060000000000000000020000080FB45
:2B0E4700000334000000000000000000000308020000000000000060000C600000600000000000000000200800089E42
:2B0E7200020110000000000000000000000110000000000000000080000E800000800000000000000000001000809380
:2B0E9D00620116000000000000000000600116000000000000000078800778000078000000000000000098000080FC37
:2B0EC80022011200000000000000000020011200000000000000006000000000000002000000000000002020008083F2
:2B0EF300420114000000000000000000400114000000000000000070400774020070000000000000000090000000F605
:2B0F1E00200112000000000000000000200112000000000000000040022600020000010000000000000000100008DEE1
:2B0F4900200112000000000000000000200112000000000000000040000600000000000000000000000020000080E74A
:2B0F7400004110040000000000000000004110040000000000000060001460000060000000000000000020000080E6EE
:2B0F9F00400330000000000000000000400330000000000000000060010C60000060000000000000000020080000EEFE
:2B0FCA001A1000000000000000000000080001040000000000000000000002000000400000000000000020000080A241
:2B0FF500000020100000000000000020000200000000000000000080200800040000000000000000000000000080F162
:2B102000000000800008800008800000000000800008000000000000000000000200000220000220000200000200CD76
:2B104B00800008800008800008800008800008800008000000000020000220000220000220000220000220000280E717
:2B1076002002220000000000000000802002000000000000000000888A0088000088000000000000000000000080EFD8
:2B10A100000000000000000000000000000000000000000000000000000000000000000110000110000010040080F27C
:2B10CC00000000000000000000000000000000000000000000000000000000000000000000000000000000000080E792
:2B10F700000000000000000000000000000000000000000000000000000000000000000000000000000000000080E767
:2B112200200222000000000000000080200200000000000000000088820088000088000110000110000010040080F2FA
:2B114D00000000000000000000000000000004100000000000000050400514010050000000000000000000000080F2F7
:2B117800000101000000000000000000000000000000000000000040000000000000400000000000000000060080E460
:2B11A3000000000C0000000000000000000000000000000000000000100002000000000000000000000000000080DBA8
:2B11CE00000000000000000000000000040000000000000000000010000111000010000000000000000000000080F34D
:2B11F9000000000000000000000000000000000D00000000000000000000000000000000000000000000107000808B33
:2B122400000000000000000000000000000048000000000000000000000000000000000000000000000020500000D90E
:2B124F00000000000000000000000000000000000000000000000000000000000000000000000000000000000080E70D
:2B127A00000000000000000000000000000000000000000000000000000000000000000000000000000000000080E7E2
:2B12A500000000000000000000000000000000000000000000000000000000000000000000000000000000000080E7B7
:2B12D000000000000000000000000000000000000000000000000000000000000000000000000000000000000080E78C
:2B12FB00000000000000000000000000000000000000000000000000000000000000000000000000000000000080E761
:2B132600000000000000000000000000000000140000000000000000000000000000000000000000000000000080F315
:2B135100000000000000000000000000000000000000000000000000000000000000000000000000000000000080E70A
:2B137C00000880000000000000000080008880000000000000000000000000000000200000000000000000000000CF47
:2B13A700000000000000000000000000000000000000000000000000000000000000000000000000000000000080E7B4
:2B13D200000000000000000004000000000000000000000000000010000000000000000000000000000000000080B6A6
:2B13FD00000000000000000000000000000000000000000000000000000000000000000000000000000000000080E75E
:2B1428000000000000000000000000000000000000000000000000000000000000000000000000000000000000C0A336
:2B145300080000000000000000000000000000000000000000000000000000000000000000000000000000000080EFF7
:2B147E00000000000000000000000000000000000000000000000000000000000000000000000000000000000080E7DC
:2B14A900000000000000000000000000000000000000000000000000000000000000000000000000000000000080E7B1
:2B14D400000000000000000000000000000000000000000000000000000000000000000000000000000000000080E786
:2B14FF00000000000000000000000000000000000000000000000000000000000000000000000000000000000080E75B
:2B152A00080000000000000000000000000000000000000000000000000000000000000000000000000000000080EF1F
:2B155500000000000000000000000000000000000000000000000000000000000000000000000000000000000080E704
:2B158000000000000000000008000000000000000000000000000000000000000200000000000000000000000000CD69
:2B15AB00000000000000000000000000000000000020000000000000000000000800000000000000000000000000C528
:2B15D600000000000000000000000000000000000000000000000000000000000000000000000000000000000080E783
:2B160100000000000000000000000000000000000080000000000000000000000002000000000000001000001000C755
:2B162C00020000000000000000000000000000000000000000000000000000000000000000000000000000000008ED9C
:2B165700000000000000000000000000000000000000000000000000000000000000000000000000000000000008EF71
:2B168200000000000000000000000000000000000000000000000000000000000000000000000000001000001090F697
:2B16AD00000000000000000000000000000000000080000000000000000000000002000000000000000000000088CF39
:2B16D8000000000000010100000100000000000000000000000000800000040002000000000000000000000000889D39
:2B170300020000000200000221000000000000000000000000000080000080200000000000000000000000000008FF6D
:2B172E00800008000000000000800008800008800008000000000000000000000020000220000220000220000280E781
:2B175900800008800008800008800008800008800008000000000020000220000220000220000220000220000280E702
:2B178400000000000000000000000000000000000000000000000000000000001000000000000000000000000080E6C4
:2B17AF00020000000000000000000000000000000000000000000000000000800900000000000000000000000008F488
:2B17DA00020000000000000000000000000000000000000000000000000000801000000000000000000000000000EC66
:2B180500040000000000000000000000000000000000000000000000000000000500000000000000000000000080B679
:2B1830000200000000000000000000000000000000000000000000000000008006000000000000000000000000008B7A
:2B185B000200000000000000000000000000000000000000000000000000008016000000000000000000000000008A40
:2B1886000200000000000000000000000000000000000000000000000000000006000000000000000000000000088B9C
:2B18B100000000000000000000000000000000000000000000000000000000008700000000000000000000000080986D
:2B18DC00000000000000000000000000000000000000000000000000000000000000000000000000000000000080E77A
:2B190700000000000000000000000000000000000066000000000000000000000000000000000000000000000080E1EE
:2B193200020000000000000000000000000000000002100000000000000000000000000000000000000000000008DD91
:2B195D00000000000000000000000000000000000014000000000000000000000000000000000000000000000080B615
:2B19880000000000000000000000000000000000001A000000000000000000000000000000000000000000000000DE3C
:2B19B30000000000000000000000000000000000001A100000000000000000000000000000000000000000000000CE11
:2B19DE00000000000000000000000000000000000018000000000000000000000000000000000000000000000000FEC8
:2B1A0900020000000000000000000000000000000018020000000000000000000000000000000000000000000088F618
:2B1A3400000000000110000110000000000000000000000000000000000000000800000000000000000000000000E776
:2B1A5F00000000600116600116000000000000000000000000000000000000800700000000000000000000000000984F
:2B1A8A00000000200112200112000000000000000000000000000000000000000000000000000000000000000080E764
:2B1AB500000000400114400114000000000000000000000000000000000000000F04000000000000000000000088D8E9
:2B1AE000020000200112200112000000000000000000000000000000000000000800000000000000000000000000E586
:2B1B0B00020000200112200112000000000000000000000000000000000000000800000000000000000000000000E55A
:2B1B36000200000011100111100000000000000000000000000000000000000006000000000000000000000000808237
:2B1B6100020000000334000314010000000000000000000000000000000000000600000000000000000000000080A0E2
:2B1B8C00000000000110000110000000000000000000000000000000000000000800000000000000000000000088EF8D
:2B1BB70000000060011660011600000000000000000000000000000000000080070000000000000000000000000098F6
:2B1BE200000000200112200112000000000000000000000000000000000000000000000000000000000000000080E70B
:2B1C0D00000000400114400114000000000000000000000000000000000000000F02000000000000000000000000B041
:2B1C3800020000200112200112000000000000000000000000000000000000000000000000000000000000000008ED24
:2B1C6300000000200112200112000000000000000000000000000000000000001800000000000000000000000088EE62
:2B1C8E0000000000011000011002000000000000000000000000000000000000060000000000000000000000009092DF
:2B1CB900000000001114411134000000000000000000000000000000000000000600000000000000000000000008EA5D
:2B1CE400000000000110000110000000000000000040000000000000000000000E00000000000000000000000088CD10
:2B1D0F00020000600116600116000000000000000026000000000000000000800700000000000000000000000088D0B4
:2B1D3A00000000200112200112000000000000000022000000000000000000000001000000000000000000000080F580
:2B1D6500000000400114400114000000000000000034000000000000000000000700000000000000000000000080E30B
:2B1D900000000020011220011200000000000000001A0800000000000000000006020000000000000000000000009008
:2B1DBB0000000020011220011200000000000000001A000000000000000000000E00000000000000000000000008B0B7
:2B1DE6000200000011100111100200000000000000180000000000000000000004020000000000000000000000009BD2
:2B1E1100020000400330400330000000000000000018020000000000000000000400000000000000000000000000BAE6
:2B1E3C00020000000110000110000000000000000000000000000000000000000800000000000000000000000000E56A
:2B1E67000200006001166001160000000000000000000000000000000000008007000000000000000000000000009A3F
:2B1E92000000002001122001120000000000000000000000000000000000000006010000000000000000000000089917
:2B1EBD000000004001144001140000000000000000000000000000000000000007000000000000000000000000809039
:2B1EE800000000200112200112000000000000000000000000000000000000000400000000000000000000000080A342
:2B1F1300000000200112200112000000000000000000000000000000000000000404000000000000000000000080E3D2
:2B1F3E000200000001100001100000000000000000000000000000000000000046000000000000000000000000088F77
:2B1F6900000000401110011110010000000000000000000000000000000000000600000000000000000000000080C182
:2B1F9400000000000220800320000000000000000000080000000040000440002000000000000000000000000000B001
:2B1FBF00000000E0011EE0011E000000000000000026000000000058800558800100000000000000000000000080E1BC
:2B1FEA00000000000818000040000000000000000008000000000048800448000200000000000000000000000080DCF2
:2B201500020000C0011CD0011D000000000000000024010000000050000550002100000000000000000000000008C818
:2B204000000000000490800500000000000000000000040000000048800448000001000000000000000000000000B78C
:2B206B000000000000108001800000000000000000080000000000488004480002000000000000000000000000808912
:2B209600000000800158000918000000000000000008000000000040100441100200000000000000000000000000D5A1
:2B20C1000000008001180001180000000000000000080200000000C0000CD00082000000000000000000000000889200
:2B20EC00020000000220800320000000000000000000010000000040000440000400000000000000000400000000B9BC
:2B211700020000E0011EE0011E000000000000000006000000000058800558800500000000000000800500000000D880
:2B214200020000000018000000000000000000000008020000000048800448800400000000000000800400000000BA78
:2B216D00020000C0091CD0015D00000000000000002400000000005000055000050000000000000000050000000096C9
:2B219800000000000010800180000000000000000000040000000048800448800400000000000000800400000088AFB4
:2B21C300000000000490800900000000000000000008000000000048800448800400000000000000800400000000EFC1
:2B21EE00000000800118000118000000000000000008000000000040100441100401000000000000000401000080B32A
:2B2219000200008001580005180000000000000000080200000000D0000DC0000C00000000000000000C00000000A340
:2B2244000A0000000001008020000000000000000008000000000000404000004000000000000000000002000000BF3B
:2B226F000000000000200802200000000000000000000000000000800000804008000000000000000008000000808D9D
:2B229A00800008000000000000800008800008800000000000000000000000000020000220000220000020000200CDAE
:2B22C500800008800008800008800008800008800008000000000020000220000220000220000220000220000280E78B
:2B22F0000000002002222002220000000000000000001000000000C880A088000000000000000000800000000080B902
:2B231B00000000000000000000000000000000000000000000000000000000000000000110000110000010040080F2EF
:2B234600000000000000000000000000000000000000000000000000000000000000000000000000000000000080E705
:2B237100000000000000000000000000000000000000000000000000000000000000000000000000000000000080E7DA
:2B239C00000000200222200222000000000000000000100000000088802088000000000110000110800010040080E0B8
:2B23C700000000400114500115000000000000000008000000000000000000000100000000000000000000000000FE29
:2B23F200000000800019800040000000000000000004010000000000000404004000000000000000000000000000EB2F
:2B241D00000000000000048000000000000000000000000000000000000000300000000000000000000000000080DB85
:2B244800000000000000004000000000000000000000000000000000000000000000000000000000000001000080F3B5
:2B2473000000000000000000000000000000000000000000000000000000000000070000000000000000000000809720
:2B249E00000000000000000000000000000000000010160000000000000000008401000000000000000000000080BC2C
:2B24C900000000000000000000000000000000000000000000000000000000000000000000000000000000000080E781
:2B24F400000000000000000000000000000000000000000000000000000000000000000000000000000000000080E756
:2B251F00000000000000000000000000000000000000000000000000000000000000000000000000000000000080E72A
:2B254A00000000000000000000000000000000000000000000000000000000000000000000000000000000000080E7FF
:2B2575000000000000000000000000000000000000001000000000000000000000000000000000000000000000C0B3B8
:2B25A000000000000000000000000000000000000040000000000000000000000100000000000000000000000080B29D
:2B25CB00000000000000000000000000000000000000000000000000000000000000000000000000000000000080E77E
:2B25F600000000008000000000000000000000000000000000000000222000022000000000000000002000000080CD69
:2B262100000000000000000000000100000000000000000000000000000040000000000000000000000000000080B21B
:2B264C00100000000000000000000000000000000000000000000000000000000000000000000000000000000080F7DC
:2B267700000000000000000000000000000000000000000000000000000000000000000000000000000000000080E7D1
:2B26A200000000000000000000000000000000000000000000000000000000000000000000000000000000000080E7A6
:2B26CD00000000000000000000000000000000000000000000000000000000000000000000000000000000000080E77B
:2B26F800000000000000000000000000000000000000000000000000000000000000000000000000000000000080E750
:2B272300000000000000000000000000000000000000000000000000000000000000000000000000000000000008EF94
:2B274E00000000000000000000000000000000000000000000000000000000000000000000000000000000000080E7F9
:2B277900000000000000000000000000000000000000000000000000000000000000000000000000000000000080E7CE
:2B27A400100000000000000000000000000000000000000000000000000000000000000000000000000000000080F783
:2B27CF00000000000000000000000000000000000000000000000000000000000000000000000000000000000080E778
:2B27FA00000000000000000000000000000000800000000000000000000000000020000000000000000000000000CD47
:2B282500000000000000000000000000000000000200000000000000000000000000010000000000000000000080C441
:2B285000000000000000000000000000000000000000000000000000000000000000000440000440000400000480E766
:2B287B00000000000000000000000000000000000000080000000000000000000008000000000000001400001400E713
:2B28A600020000000000000000000000000000000000000000000000000000000000000000000000000000000008ED10
:2B28D100020000000000000000000000000000000000000000000000000000000000000000000000000000000080E575
:2B28FC00040000000000000000000000000000000000000000000000000000000000000000000000000400000480E342
:2B2927000200000000000000000000000000000000000C0000000000000000000008000000000000001000001000E16E
:2B2952000200000000000000000000001000008000000000000000000000040000200000000000000000000000009F05
:2B297D00020000000000000000001000008200000000000000000080200000040000000000000000000000000088E28D
:2B29A800800008800008800008000000000008000008000000000000000000000200000220000220000220000280E78B
:2B29D300800008800008800008800008800008800008000000000020000220000220000220000220000220000280E776
:2B29FE00000000000000000000000000000000000000000000000000000000000000000000000000000000000080E747
:2B2A2900020000000000000000000000000000000000000000000000000000000000000000000000000000000008ED8B
:2B2A5400000000000000000000000000000000000000000000000000000000000000000000000000000000000080E7F0
:2B2A7F00000000000000000000000000000000000000000000000000000000000000000000000000000000000080E7C5
:2B2AAA00000000000000000000000000000000000000000000000000000000000000000000000000000000000080E79A
:2B2AD500000000000000000000000000000000000000000000000000000000000000000000000000000000000080E76F
:2B2B0000020000000000000000000000000000000000000000000000000000000000000000000000000000000008EDB3
:2B2B2B00000000000000000000000000000000000000000000000000000000000000000000000000000000000080E718
:2B2B5600000000000000000000000000000000000000000000000000000000000000000000000000000000000080E7ED
:2B2B81000000000000000000000000000000006006000000000000000000000000781000000000000000000000008EAD
:2B2BAC00020000000000000000000000000000200000000000000000000000000000000000000000000000000008CD07
:2B2BD7000000000000000000000000000000004005000000000000000000000000F0400000000000000000000000C599
:2B2C0200000000000000000000000000000000A00500000000000000000000000000200000000000000000000000BA28
:2B2C2D00000000000000000000000000000000A00300000000000000000000000080000000000000000000000080FCDD
:2B2C580000000000000000000000000000000080010000000000000000000000006000000000000000000000000098D8
:2B2C8300020000000000000000000000000000C02100000000000000000000000060000000000000000000000088D08B
:2B2CAE00000000000000000000000000000000000100000000000000000000000000000000000000000400000080B2C4
:2B2CD900000000000000000000000000000000600100000000000000000000000078100000000000804100804100F96C
:2B2D0400000000000000000000000000000000200100000000000000000000000080000000000000000001000001D62B
:2B2D2F00000000000000000000000000000000400100000000000000000000000070000000000000000900000908C9E5
:2B2D5A0002000000000000000000000000000020010000000000000000000000000000000000000000000400040C987F
:2B2D8500020000000000000000000000000000200100000000000000000000000080010000000000000800000810C49B
:2B2DB000020000000000000000000000000000000300000000000000000000000060000000000000004000004008B853
:2B2DDB00020000000000000000000000000000000300000000000000000000000060000000000000000000000008B8A8
:2B2E0600000000000000000000000000000000000000000000000000000000000000010000000000000000000008EEAA
:2B2E3100000000000000000000000000000000E04100000000000000000000000098000000000000000000000000833A
:2B2E5C00000000000000000000000000000000000000000000000000000000000008010000000000000000000000EE54
:2B2E8700000000000000000000000000000000C00301000000000000000000000050000000000000000000000000D933
:2B2EB2000000000000000000000000000000000000000000000000000000000000680000000000000000000000888184
:2B2EDD00020000000000000000000000000000008200000000000000000000000068010000000000000000000000A03D
:2B2F08000200000000000000000000000000008001000000000000000000000000600000000000000000000000009A21
:2B2F33000200000000000000000000000000008001000000000000000000000000F008000000000000000000008083F5
:2B2F5E0002000000000000000000000000000000000000000000000000000000006000000000000000000000008083E3
:2B2F8900000000000000000000000000000000E04100000000000000000000000078100000000000000000000008FD6F
:2B2FB400000000000000000000000000000000000001000000000000000000000000100000000000000000000080E77A
:2B2FDF00000000000000000000000000000000C00100000000000000000000000070000000000000000000000000C9CD
:2B300A0000000000000000000000000000000000080000000000000000000000006000000000000000000000000081B2
:2B3035000000000000000000000000000000000000000000000000000000000000E0200000000000000000000088A93F
:2B30600002000000000000000000000000000080010000000000000000000000004020000000000000000000000098CA
:2B308B00020000000000000000000000000000800100000000000000000000000040000000000000000000000000B89F
:2B30B600020000000000000000000000000000800100000000000000000000000000000000000000000000000000FC70
:2B30E100020000000000000000000000000000E04100000000000000000000000078100000000000000000804100EA6E
:2B310C00000000000000000000000000000000004000000000000000000000000060100000000000000000000409C912
:2B313700000000000000000000000000000000C00100000000000000000000000070000000000000000000000980D8DB
:2B316200000000000000000000000000000000808100000000000000000000000040000000000000000000000004F20B
:2B318D000000000000000000000000000000008003000000000000000000000000400800000000000000000008809034
:2B31B8000200000000000000000000000000000001000000000000000000000000600000000000000000000040089EA3
:2B31E300000000000000000000000000000000004300000000000000000000000060400000000000000000000080F668
:2B320E00000000000000000000000110000100000000000000000040000440000000000000000000000000000080B2CD
:2B323900000000000000000000600116600100E04100000000000058800558000098020000000000000000000080AD75
:2B326400000000000000000000200112200100804100000000000048800448000020020000000000000000000080A7CD
:2B328F00020000000000000000400114400100C00100000000000050000550000010000000000000000000000088A1DD
:2B32BA000000000000000000002001122001000001000000000000488004480000001000000000000000000000009BD5
:2B32E500000000000000000000200112200100000101000000000048800448000020000000000000000000000000B97B
:2B3310000000000000000000000003300003008003000000000000400444400400200000000000000000000000008D60
:2B333B000000000000000000004003304003008001000000000000D0000CD00000A0080000000000000000000088ABA9
:2B336600020000000000000010000110000100000000000000000040000440000440000000000000000000000080A12F
:2B33910002000000000000001660011660010060080000000000005880055880055880451884411804000080410081A7
:2B33BC00020000000000000012200112200100800400000000000048800448800448000001100001100000000081F582
:2B33E700020000000000000014400114400100400000000000000050000550000550000990000D90000000000900A5F1
:2B34120000000000000000001220011220010000400000000000004880044880044800000440000440000000008CE70E
:2B343D000000000000000000122001122001008000000000000000488004488004480008C0000880000000000800E75F
:2B346800000000000000000030000330000300800000000000000040044440044440084000044000040000004400E34C
:2B3493000200000000000000300003340003008020000000000000C0000DC0000CC0000000000040000000000080BE2B
:2B34BE001A0000000000000000080000020000001000000000000000008000000002040000000000000000000080DACF
:2B34E900000000000000000020001200000201000200000000000080400080040880000000000000000000000080B283
:2B351400800008800008800000000000000008000008000000000000000000000000000220000220000220000200CDB7
:2B353F00800008800008800008800008800008800008000000000020000220000220000220000220000220000280E7FE
:2B356A0000000000000000000220038222008002000000000000008880080880A0000001100001100000300C0080E1F4
:2B359500000000000000000000000000000000000000000000000000000000000000000000000000000000000080E7A4
:2B35C000000000000000000000000000000000000000000000000000000000000000000000000000000000000080E779
:2B35EB00000000000000000000000000000000000000000000000000000000000000000220000220000020080080CDFC
:2B361600000000000000000002200282200080000000000000000088800808802000000110000110000010040080D203
:2B364100000000000000000000000000000000001800000000000000000000000000040440000440000400000400E2D0
:2B366C00000000000000000000000020100000001000000000000020000A2400020005000220000220000200000291C5
:2B36970000000000000000000000000000C000000000000000000000300000000000000000000000000000000080DBBD
:2B36C200000000000000000004440004400000400000000000000000000000000001000000000000000000000080B3DD
:2B36ED0000000000000000000000000000000000C0010000000000000000000000007000000000000000000000808B76
:2B371800000000000000000000000000000000004000000000000000000000000000180000000000000000000080FBB3
:2B374300000000000000000000000000000000000000000000000000000000000000000000000000000000000080E7F4
:2B376E00000000000000000000000000000000000000000000000000000000000000000000000000000000000080E7C9
:2B379900000000000000000000000000000000000000000000000000000000000000000000000000000000000080E79E
:2B37C400000000000000000000000000000000000000000000000000000000000000000000000000000000000080E773
:2B37EF00000000000000000000000000000000400000000000000000000000000090000000000000000000000000B629
:2B381A00000000000000000000000000000000000001000000000000000000000000000000000000000000000080F70B
:2B384500000000000000000000800000000000000000000000000000000020000000000000000000000000000000CDEB
:2B387000000000000000000000000000000000000000000000000000000000000000002000022000022000002080E742
:2B389B00000000000000000000000000000000000000000000000000000000000000000000000000000000000080E79B
:2B38C600000000000000000000000000000000000000000000000000000000000000000000000000000000000080E770
:2B38F100000000000000000000000000000000000000000000000000000000000000000000000000000000000080E745
:2B391C00000000000000000000000000000000000000000000000000000000000000000000000000000000000080E719
:2B394700401004411004411004411004411004411004010000000010044110044110044110044110044110044180E7F2
:2B397200601886611886611886611886611886611886010000000018866118866118866118866118866118866180E7CF
:02399D00FFFF2A
:00000001FF
